{
  "_format": "hh-sol-artifact-1",
  "contractName": "PositionRouter",
  "sourceName": "contracts/core/PositionRouter.sol",
  "abi": [
    {
      "inputs": [
        {
          "internalType": "address",
          "name": "_vault",
          "type": "address"
        },
        {
          "internalType": "address",
          "name": "_router",
          "type": "address"
        },
        {
          "internalType": "address",
          "name": "_weth",
          "type": "address"
        },
        {
          "internalType": "address",
          "name": "_shortsTracker",
          "type": "address"
        },
        {
          "internalType": "uint256",
          "name": "_depositFee",
          "type": "uint256"
        },
        {
          "internalType": "uint256",
          "name": "_minExecutionFee",
          "type": "uint256"
        }
      ],
      "stateMutability": "nonpayable",
      "type": "constructor"
    },
    {
      "anonymous": false,
      "inputs": [
        {
          "indexed": false,
          "internalType": "address",
          "name": "callbackTarget",
          "type": "address"
        },
        {
          "indexed": false,
          "internalType": "bool",
          "name": "success",
          "type": "bool"
        }
      ],
      "name": "Callback",
      "type": "event"
    },
    {
      "anonymous": false,
      "inputs": [
        {
          "indexed": true,
          "internalType": "address",
          "name": "account",
          "type": "address"
        },
        {
          "indexed": false,
          "internalType": "address[]",
          "name": "path",
          "type": "address[]"
        },
        {
          "indexed": false,
          "internalType": "address",
          "name": "indexToken",
          "type": "address"
        },
        {
          "indexed": false,
          "internalType": "uint256",
          "name": "collateralDelta",
          "type": "uint256"
        },
        {
          "indexed": false,
          "internalType": "uint256",
          "name": "sizeDelta",
          "type": "uint256"
        },
        {
          "indexed": false,
          "internalType": "bool",
          "name": "isLong",
          "type": "bool"
        },
        {
          "indexed": false,
          "internalType": "address",
          "name": "receiver",
          "type": "address"
        },
        {
          "indexed": false,
          "internalType": "uint256",
          "name": "acceptablePrice",
          "type": "uint256"
        },
        {
          "indexed": false,
          "internalType": "uint256",
          "name": "minOut",
          "type": "uint256"
        },
        {
          "indexed": false,
          "internalType": "uint256",
          "name": "executionFee",
          "type": "uint256"
        },
        {
          "indexed": false,
          "internalType": "uint256",
          "name": "blockGap",
          "type": "uint256"
        },
        {
          "indexed": false,
          "internalType": "uint256",
          "name": "timeGap",
          "type": "uint256"
        }
      ],
      "name": "CancelDecreasePosition",
      "type": "event"
    },
    {
      "anonymous": false,
      "inputs": [
        {
          "indexed": true,
          "internalType": "address",
          "name": "account",
          "type": "address"
        },
        {
          "indexed": false,
          "internalType": "address[]",
          "name": "path",
          "type": "address[]"
        },
        {
          "indexed": false,
          "internalType": "address",
          "name": "indexToken",
          "type": "address"
        },
        {
          "indexed": false,
          "internalType": "uint256",
          "name": "amountIn",
          "type": "uint256"
        },
        {
          "indexed": false,
          "internalType": "uint256",
          "name": "minOut",
          "type": "uint256"
        },
        {
          "indexed": false,
          "internalType": "uint256",
          "name": "sizeDelta",
          "type": "uint256"
        },
        {
          "indexed": false,
          "internalType": "bool",
          "name": "isLong",
          "type": "bool"
        },
        {
          "indexed": false,
          "internalType": "uint256",
          "name": "acceptablePrice",
          "type": "uint256"
        },
        {
          "indexed": false,
          "internalType": "uint256",
          "name": "executionFee",
          "type": "uint256"
        },
        {
          "indexed": false,
          "internalType": "uint256",
          "name": "blockGap",
          "type": "uint256"
        },
        {
          "indexed": false,
          "internalType": "uint256",
          "name": "timeGap",
          "type": "uint256"
        }
      ],
      "name": "CancelIncreasePosition",
      "type": "event"
    },
    {
      "anonymous": false,
      "inputs": [
        {
          "indexed": true,
          "internalType": "address",
          "name": "account",
          "type": "address"
        },
        {
          "indexed": false,
          "internalType": "address[]",
          "name": "path",
          "type": "address[]"
        },
        {
          "indexed": false,
          "internalType": "address",
          "name": "indexToken",
          "type": "address"
        },
        {
          "indexed": false,
          "internalType": "uint256",
          "name": "collateralDelta",
          "type": "uint256"
        },
        {
          "indexed": false,
          "internalType": "uint256",
          "name": "sizeDelta",
          "type": "uint256"
        },
        {
          "indexed": false,
          "internalType": "bool",
          "name": "isLong",
          "type": "bool"
        },
        {
          "indexed": false,
          "internalType": "address",
          "name": "receiver",
          "type": "address"
        },
        {
          "indexed": false,
          "internalType": "uint256",
          "name": "acceptablePrice",
          "type": "uint256"
        },
        {
          "indexed": false,
          "internalType": "uint256",
          "name": "minOut",
          "type": "uint256"
        },
        {
          "indexed": false,
          "internalType": "uint256",
          "name": "executionFee",
          "type": "uint256"
        },
        {
          "indexed": false,
          "internalType": "uint256",
          "name": "index",
          "type": "uint256"
        },
        {
          "indexed": false,
          "internalType": "uint256",
          "name": "queueIndex",
          "type": "uint256"
        },
        {
          "indexed": false,
          "internalType": "uint256",
          "name": "blockNumber",
          "type": "uint256"
        },
        {
          "indexed": false,
          "internalType": "uint256",
          "name": "blockTime",
          "type": "uint256"
        }
      ],
      "name": "CreateDecreasePosition",
      "type": "event"
    },
    {
      "anonymous": false,
      "inputs": [
        {
          "indexed": true,
          "internalType": "address",
          "name": "account",
          "type": "address"
        },
        {
          "indexed": false,
          "internalType": "address[]",
          "name": "path",
          "type": "address[]"
        },
        {
          "indexed": false,
          "internalType": "address",
          "name": "indexToken",
          "type": "address"
        },
        {
          "indexed": false,
          "internalType": "uint256",
          "name": "amountIn",
          "type": "uint256"
        },
        {
          "indexed": false,
          "internalType": "uint256",
          "name": "minOut",
          "type": "uint256"
        },
        {
          "indexed": false,
          "internalType": "uint256",
          "name": "sizeDelta",
          "type": "uint256"
        },
        {
          "indexed": false,
          "internalType": "bool",
          "name": "isLong",
          "type": "bool"
        },
        {
          "indexed": false,
          "internalType": "uint256",
          "name": "acceptablePrice",
          "type": "uint256"
        },
        {
          "indexed": false,
          "internalType": "uint256",
          "name": "executionFee",
          "type": "uint256"
        },
        {
          "indexed": false,
          "internalType": "uint256",
          "name": "index",
          "type": "uint256"
        },
        {
          "indexed": false,
          "internalType": "uint256",
          "name": "queueIndex",
          "type": "uint256"
        },
        {
          "indexed": false,
          "internalType": "uint256",
          "name": "blockNumber",
          "type": "uint256"
        },
        {
          "indexed": false,
          "internalType": "uint256",
          "name": "blockTime",
          "type": "uint256"
        },
        {
          "indexed": false,
          "internalType": "uint256",
          "name": "gasPrice",
          "type": "uint256"
        }
      ],
      "name": "CreateIncreasePosition",
      "type": "event"
    },
    {
      "anonymous": false,
      "inputs": [
        {
          "indexed": false,
          "internalType": "address",
          "name": "account",
          "type": "address"
        },
        {
          "indexed": false,
          "internalType": "uint256",
          "name": "sizeDelta",
          "type": "uint256"
        },
        {
          "indexed": false,
          "internalType": "uint256",
          "name": "marginFeeBasisPoints",
          "type": "uint256"
        },
        {
          "indexed": false,
          "internalType": "bytes32",
          "name": "referralCode",
          "type": "bytes32"
        },
        {
          "indexed": false,
          "internalType": "address",
          "name": "referrer",
          "type": "address"
        }
      ],
      "name": "DecreasePositionReferral",
      "type": "event"
    },
    {
      "anonymous": false,
      "inputs": [
        {
          "indexed": true,
          "internalType": "address",
          "name": "account",
          "type": "address"
        },
        {
          "indexed": false,
          "internalType": "address[]",
          "name": "path",
          "type": "address[]"
        },
        {
          "indexed": false,
          "internalType": "address",
          "name": "indexToken",
          "type": "address"
        },
        {
          "indexed": false,
          "internalType": "uint256",
          "name": "collateralDelta",
          "type": "uint256"
        },
        {
          "indexed": false,
          "internalType": "uint256",
          "name": "sizeDelta",
          "type": "uint256"
        },
        {
          "indexed": false,
          "internalType": "bool",
          "name": "isLong",
          "type": "bool"
        },
        {
          "indexed": false,
          "internalType": "address",
          "name": "receiver",
          "type": "address"
        },
        {
          "indexed": false,
          "internalType": "uint256",
          "name": "acceptablePrice",
          "type": "uint256"
        },
        {
          "indexed": false,
          "internalType": "uint256",
          "name": "minOut",
          "type": "uint256"
        },
        {
          "indexed": false,
          "internalType": "uint256",
          "name": "executionFee",
          "type": "uint256"
        },
        {
          "indexed": false,
          "internalType": "uint256",
          "name": "blockGap",
          "type": "uint256"
        },
        {
          "indexed": false,
          "internalType": "uint256",
          "name": "timeGap",
          "type": "uint256"
        }
      ],
      "name": "ExecuteDecreasePosition",
      "type": "event"
    },
    {
      "anonymous": false,
      "inputs": [
        {
          "indexed": true,
          "internalType": "address",
          "name": "account",
          "type": "address"
        },
        {
          "indexed": false,
          "internalType": "address[]",
          "name": "path",
          "type": "address[]"
        },
        {
          "indexed": false,
          "internalType": "address",
          "name": "indexToken",
          "type": "address"
        },
        {
          "indexed": false,
          "internalType": "uint256",
          "name": "amountIn",
          "type": "uint256"
        },
        {
          "indexed": false,
          "internalType": "uint256",
          "name": "minOut",
          "type": "uint256"
        },
        {
          "indexed": false,
          "internalType": "uint256",
          "name": "sizeDelta",
          "type": "uint256"
        },
        {
          "indexed": false,
          "internalType": "bool",
          "name": "isLong",
          "type": "bool"
        },
        {
          "indexed": false,
          "internalType": "uint256",
          "name": "acceptablePrice",
          "type": "uint256"
        },
        {
          "indexed": false,
          "internalType": "uint256",
          "name": "executionFee",
          "type": "uint256"
        },
        {
          "indexed": false,
          "internalType": "uint256",
          "name": "blockGap",
          "type": "uint256"
        },
        {
          "indexed": false,
          "internalType": "uint256",
          "name": "timeGap",
          "type": "uint256"
        }
      ],
      "name": "ExecuteIncreasePosition",
      "type": "event"
    },
    {
      "anonymous": false,
      "inputs": [
        {
          "indexed": false,
          "internalType": "address",
          "name": "account",
          "type": "address"
        },
        {
          "indexed": false,
          "internalType": "uint256",
          "name": "sizeDelta",
          "type": "uint256"
        },
        {
          "indexed": false,
          "internalType": "uint256",
          "name": "marginFeeBasisPoints",
          "type": "uint256"
        },
        {
          "indexed": false,
          "internalType": "bytes32",
          "name": "referralCode",
          "type": "bytes32"
        },
        {
          "indexed": false,
          "internalType": "address",
          "name": "referrer",
          "type": "address"
        }
      ],
      "name": "IncreasePositionReferral",
      "type": "event"
    },
    {
      "anonymous": false,
      "inputs": [
        {
          "indexed": false,
          "internalType": "address",
          "name": "admin",
          "type": "address"
        }
      ],
      "name": "SetAdmin",
      "type": "event"
    },
    {
      "anonymous": false,
      "inputs": [
        {
          "indexed": false,
          "internalType": "uint256",
          "name": "callbackGasLimit",
          "type": "uint256"
        }
      ],
      "name": "SetCallbackGasLimit",
      "type": "event"
    },
    {
      "anonymous": false,
      "inputs": [
        {
          "indexed": false,
          "internalType": "uint256",
          "name": "minBlockDelayKeeper",
          "type": "uint256"
        },
        {
          "indexed": false,
          "internalType": "uint256",
          "name": "minTimeDelayPublic",
          "type": "uint256"
        },
        {
          "indexed": false,
          "internalType": "uint256",
          "name": "maxTimeDelay",
          "type": "uint256"
        }
      ],
      "name": "SetDelayValues",
      "type": "event"
    },
    {
      "anonymous": false,
      "inputs": [
        {
          "indexed": false,
          "internalType": "uint256",
          "name": "depositFee",
          "type": "uint256"
        }
      ],
      "name": "SetDepositFee",
      "type": "event"
    },
    {
      "anonymous": false,
      "inputs": [
        {
          "indexed": false,
          "internalType": "uint256",
          "name": "increasePositionBufferBps",
          "type": "uint256"
        }
      ],
      "name": "SetIncreasePositionBufferBps",
      "type": "event"
    },
    {
      "anonymous": false,
      "inputs": [
        {
          "indexed": false,
          "internalType": "bool",
          "name": "isLeverageEnabled",
          "type": "bool"
        }
      ],
      "name": "SetIsLeverageEnabled",
      "type": "event"
    },
    {
      "anonymous": false,
      "inputs": [
        {
          "indexed": false,
          "internalType": "address[]",
          "name": "tokens",
          "type": "address[]"
        },
        {
          "indexed": false,
          "internalType": "uint256[]",
          "name": "longSizes",
          "type": "uint256[]"
        },
        {
          "indexed": false,
          "internalType": "uint256[]",
          "name": "shortSizes",
          "type": "uint256[]"
        }
      ],
      "name": "SetMaxGlobalSizes",
      "type": "event"
    },
    {
      "anonymous": false,
      "inputs": [
        {
          "indexed": false,
          "internalType": "uint256",
          "name": "minExecutionFee",
          "type": "uint256"
        }
      ],
      "name": "SetMinExecutionFee",
      "type": "event"
    },
    {
      "anonymous": false,
      "inputs": [
        {
          "indexed": true,
          "internalType": "address",
          "name": "account",
          "type": "address"
        },
        {
          "indexed": false,
          "internalType": "bool",
          "name": "isActive",
          "type": "bool"
        }
      ],
      "name": "SetPositionKeeper",
      "type": "event"
    },
    {
      "anonymous": false,
      "inputs": [
        {
          "indexed": false,
          "internalType": "address",
          "name": "referralStorage",
          "type": "address"
        }
      ],
      "name": "SetReferralStorage",
      "type": "event"
    },
    {
      "anonymous": false,
      "inputs": [
        {
          "indexed": false,
          "internalType": "uint256",
          "name": "increasePositionRequestKeysStart",
          "type": "uint256"
        },
        {
          "indexed": false,
          "internalType": "uint256",
          "name": "decreasePositionRequestKeysStart",
          "type": "uint256"
        }
      ],
      "name": "SetRequestKeysStartValues",
      "type": "event"
    },
    {
      "anonymous": false,
      "inputs": [
        {
          "indexed": false,
          "internalType": "address",
          "name": "token",
          "type": "address"
        },
        {
          "indexed": false,
          "internalType": "address",
          "name": "receiver",
          "type": "address"
        },
        {
          "indexed": false,
          "internalType": "uint256",
          "name": "amount",
          "type": "uint256"
        }
      ],
      "name": "WithdrawFees",
      "type": "event"
    },
    {
      "inputs": [],
      "name": "BASIS_POINTS_DIVISOR",
      "outputs": [
        {
          "internalType": "uint256",
          "name": "",
          "type": "uint256"
        }
      ],
      "stateMutability": "view",
      "type": "function"
    },
    {
      "inputs": [],
      "name": "admin",
      "outputs": [
        {
          "internalType": "address",
          "name": "",
          "type": "address"
        }
      ],
      "stateMutability": "view",
      "type": "function"
    },
    {
      "inputs": [
        {
          "internalType": "address",
          "name": "_token",
          "type": "address"
        },
        {
          "internalType": "address",
          "name": "_spender",
          "type": "address"
        },
        {
          "internalType": "uint256",
          "name": "_amount",
          "type": "uint256"
        }
      ],
      "name": "approve",
      "outputs": [],
      "stateMutability": "nonpayable",
      "type": "function"
    },
    {
      "inputs": [],
      "name": "callbackGasLimit",
      "outputs": [
        {
          "internalType": "uint256",
          "name": "",
          "type": "uint256"
        }
      ],
      "stateMutability": "view",
      "type": "function"
    },
    {
      "inputs": [
        {
          "internalType": "bytes32",
          "name": "_key",
          "type": "bytes32"
        },
        {
          "internalType": "address payable",
          "name": "_executionFeeReceiver",
          "type": "address"
        }
      ],
      "name": "cancelDecreasePosition",
      "outputs": [
        {
          "internalType": "bool",
          "name": "",
          "type": "bool"
        }
      ],
      "stateMutability": "nonpayable",
      "type": "function"
    },
    {
      "inputs": [
        {
          "internalType": "bytes32",
          "name": "_key",
          "type": "bytes32"
        },
        {
          "internalType": "address payable",
          "name": "_executionFeeReceiver",
          "type": "address"
        }
      ],
      "name": "cancelIncreasePosition",
      "outputs": [
        {
          "internalType": "bool",
          "name": "",
          "type": "bool"
        }
      ],
      "stateMutability": "nonpayable",
      "type": "function"
    },
    {
      "inputs": [
        {
          "internalType": "address[]",
          "name": "_path",
          "type": "address[]"
        },
        {
          "internalType": "address",
          "name": "_indexToken",
          "type": "address"
        },
        {
          "internalType": "uint256",
          "name": "_collateralDelta",
          "type": "uint256"
        },
        {
          "internalType": "uint256",
          "name": "_sizeDelta",
          "type": "uint256"
        },
        {
          "internalType": "bool",
          "name": "_isLong",
          "type": "bool"
        },
        {
          "internalType": "address",
          "name": "_receiver",
          "type": "address"
        },
        {
          "internalType": "uint256",
          "name": "_acceptablePrice",
          "type": "uint256"
        },
        {
          "internalType": "uint256",
          "name": "_minOut",
          "type": "uint256"
        },
        {
          "internalType": "uint256",
          "name": "_executionFee",
          "type": "uint256"
        },
        {
          "internalType": "bool",
          "name": "_withdrawETH",
          "type": "bool"
        },
        {
          "internalType": "address",
          "name": "_callbackTarget",
          "type": "address"
        }
      ],
      "name": "createDecreasePosition",
      "outputs": [
        {
          "internalType": "bytes32",
          "name": "",
          "type": "bytes32"
        }
      ],
      "stateMutability": "payable",
      "type": "function"
    },
    {
      "inputs": [
        {
          "internalType": "address[]",
          "name": "_path",
          "type": "address[]"
        },
        {
          "internalType": "address",
          "name": "_indexToken",
          "type": "address"
        },
        {
          "internalType": "uint256",
          "name": "_amountIn",
          "type": "uint256"
        },
        {
          "internalType": "uint256",
          "name": "_minOut",
          "type": "uint256"
        },
        {
          "internalType": "uint256",
          "name": "_sizeDelta",
          "type": "uint256"
        },
        {
          "internalType": "bool",
          "name": "_isLong",
          "type": "bool"
        },
        {
          "internalType": "uint256",
          "name": "_acceptablePrice",
          "type": "uint256"
        },
        {
          "internalType": "uint256",
          "name": "_executionFee",
          "type": "uint256"
        },
        {
          "internalType": "bytes32",
          "name": "_referralCode",
          "type": "bytes32"
        },
        {
          "internalType": "address",
          "name": "_callbackTarget",
          "type": "address"
        }
      ],
      "name": "createIncreasePosition",
      "outputs": [
        {
          "internalType": "bytes32",
          "name": "",
          "type": "bytes32"
        }
      ],
      "stateMutability": "payable",
      "type": "function"
    },
    {
      "inputs": [
        {
          "internalType": "address[]",
          "name": "_path",
          "type": "address[]"
        },
        {
          "internalType": "address",
          "name": "_indexToken",
          "type": "address"
        },
        {
          "internalType": "uint256",
          "name": "_minOut",
          "type": "uint256"
        },
        {
          "internalType": "uint256",
          "name": "_sizeDelta",
          "type": "uint256"
        },
        {
          "internalType": "bool",
          "name": "_isLong",
          "type": "bool"
        },
        {
          "internalType": "uint256",
          "name": "_acceptablePrice",
          "type": "uint256"
        },
        {
          "internalType": "uint256",
          "name": "_executionFee",
          "type": "uint256"
        },
        {
          "internalType": "bytes32",
          "name": "_referralCode",
          "type": "bytes32"
        },
        {
          "internalType": "address",
          "name": "_callbackTarget",
          "type": "address"
        }
      ],
      "name": "createIncreasePositionETH",
      "outputs": [
        {
          "internalType": "bytes32",
          "name": "",
          "type": "bytes32"
        }
      ],
      "stateMutability": "payable",
      "type": "function"
    },
    {
      "inputs": [
        {
          "internalType": "uint256",
          "name": "",
          "type": "uint256"
        }
      ],
      "name": "decreasePositionRequestKeys",
      "outputs": [
        {
          "internalType": "bytes32",
          "name": "",
          "type": "bytes32"
        }
      ],
      "stateMutability": "view",
      "type": "function"
    },
    {
      "inputs": [],
      "name": "decreasePositionRequestKeysStart",
      "outputs": [
        {
          "internalType": "uint256",
          "name": "",
          "type": "uint256"
        }
      ],
      "stateMutability": "view",
      "type": "function"
    },
    {
      "inputs": [
        {
          "internalType": "bytes32",
          "name": "",
          "type": "bytes32"
        }
      ],
      "name": "decreasePositionRequests",
      "outputs": [
        {
          "internalType": "address",
          "name": "account",
          "type": "address"
        },
        {
          "internalType": "address",
          "name": "indexToken",
          "type": "address"
        },
        {
          "internalType": "uint256",
          "name": "collateralDelta",
          "type": "uint256"
        },
        {
          "internalType": "uint256",
          "name": "sizeDelta",
          "type": "uint256"
        },
        {
          "internalType": "bool",
          "name": "isLong",
          "type": "bool"
        },
        {
          "internalType": "address",
          "name": "receiver",
          "type": "address"
        },
        {
          "internalType": "uint256",
          "name": "acceptablePrice",
          "type": "uint256"
        },
        {
          "internalType": "uint256",
          "name": "minOut",
          "type": "uint256"
        },
        {
          "internalType": "uint256",
          "name": "executionFee",
          "type": "uint256"
        },
        {
          "internalType": "uint256",
          "name": "blockNumber",
          "type": "uint256"
        },
        {
          "internalType": "uint256",
          "name": "blockTime",
          "type": "uint256"
        },
        {
          "internalType": "bool",
          "name": "withdrawETH",
          "type": "bool"
        },
        {
          "internalType": "address",
          "name": "callbackTarget",
          "type": "address"
        }
      ],
      "stateMutability": "view",
      "type": "function"
    },
    {
      "inputs": [
        {
          "internalType": "address",
          "name": "",
          "type": "address"
        }
      ],
      "name": "decreasePositionsIndex",
      "outputs": [
        {
          "internalType": "uint256",
          "name": "",
          "type": "uint256"
        }
      ],
      "stateMutability": "view",
      "type": "function"
    },
    {
      "inputs": [],
      "name": "depositFee",
      "outputs": [
        {
          "internalType": "uint256",
          "name": "",
          "type": "uint256"
        }
      ],
      "stateMutability": "view",
      "type": "function"
    },
    {
      "inputs": [
        {
          "internalType": "address",
          "name": "",
          "type": "address"
        }
      ],
      "name": "feeReserves",
      "outputs": [
        {
          "internalType": "uint256",
          "name": "",
          "type": "uint256"
        }
      ],
      "stateMutability": "view",
      "type": "function"
    },
    {
      "inputs": [
        {
          "internalType": "bytes32",
          "name": "_key",
          "type": "bytes32"
        }
      ],
      "name": "getDecreasePositionRequestPath",
      "outputs": [
        {
          "internalType": "address[]",
          "name": "",
          "type": "address[]"
        }
      ],
      "stateMutability": "view",
      "type": "function"
    },
    {
      "inputs": [
        {
          "internalType": "bytes32",
          "name": "_key",
          "type": "bytes32"
        }
      ],
      "name": "getIncreasePositionRequestPath",
      "outputs": [
        {
          "internalType": "address[]",
          "name": "",
          "type": "address[]"
        }
      ],
      "stateMutability": "view",
      "type": "function"
    },
    {
      "inputs": [
        {
          "internalType": "address",
          "name": "_account",
          "type": "address"
        },
        {
          "internalType": "uint256",
          "name": "_index",
          "type": "uint256"
        }
      ],
      "name": "getRequestKey",
      "outputs": [
        {
          "internalType": "bytes32",
          "name": "",
          "type": "bytes32"
        }
      ],
      "stateMutability": "pure",
      "type": "function"
    },
    {
      "inputs": [],
      "name": "getRequestQueueLengths",
      "outputs": [
        {
          "internalType": "uint256",
          "name": "",
          "type": "uint256"
        },
        {
          "internalType": "uint256",
          "name": "",
          "type": "uint256"
        },
        {
          "internalType": "uint256",
          "name": "",
          "type": "uint256"
        },
        {
          "internalType": "uint256",
          "name": "",
          "type": "uint256"
        }
      ],
      "stateMutability": "view",
      "type": "function"
    },
    {
      "inputs": [],
      "name": "gov",
      "outputs": [
        {
          "internalType": "address",
          "name": "",
          "type": "address"
        }
      ],
      "stateMutability": "view",
      "type": "function"
    },
    {
      "inputs": [],
      "name": "increasePositionBufferBps",
      "outputs": [
        {
          "internalType": "uint256",
          "name": "",
          "type": "uint256"
        }
      ],
      "stateMutability": "view",
      "type": "function"
    },
    {
      "inputs": [
        {
          "internalType": "uint256",
          "name": "",
          "type": "uint256"
        }
      ],
      "name": "increasePositionRequestKeys",
      "outputs": [
        {
          "internalType": "bytes32",
          "name": "",
          "type": "bytes32"
        }
      ],
      "stateMutability": "view",
      "type": "function"
    },
    {
      "inputs": [],
      "name": "increasePositionRequestKeysStart",
      "outputs": [
        {
          "internalType": "uint256",
          "name": "",
          "type": "uint256"
        }
      ],
      "stateMutability": "view",
      "type": "function"
    },
    {
      "inputs": [
        {
          "internalType": "bytes32",
          "name": "",
          "type": "bytes32"
        }
      ],
      "name": "increasePositionRequests",
      "outputs": [
        {
          "internalType": "address",
          "name": "account",
          "type": "address"
        },
        {
          "internalType": "address",
          "name": "indexToken",
          "type": "address"
        },
        {
          "internalType": "uint256",
          "name": "amountIn",
          "type": "uint256"
        },
        {
          "internalType": "uint256",
          "name": "minOut",
          "type": "uint256"
        },
        {
          "internalType": "uint256",
          "name": "sizeDelta",
          "type": "uint256"
        },
        {
          "internalType": "bool",
          "name": "isLong",
          "type": "bool"
        },
        {
          "internalType": "uint256",
          "name": "acceptablePrice",
          "type": "uint256"
        },
        {
          "internalType": "uint256",
          "name": "executionFee",
          "type": "uint256"
        },
        {
          "internalType": "uint256",
          "name": "blockNumber",
          "type": "uint256"
        },
        {
          "internalType": "uint256",
          "name": "blockTime",
          "type": "uint256"
        },
        {
          "internalType": "bool",
          "name": "hasCollateralInETH",
          "type": "bool"
        },
        {
          "internalType": "address",
          "name": "callbackTarget",
          "type": "address"
        }
      ],
      "stateMutability": "view",
      "type": "function"
    },
    {
      "inputs": [
        {
          "internalType": "address",
          "name": "",
          "type": "address"
        }
      ],
      "name": "increasePositionsIndex",
      "outputs": [
        {
          "internalType": "uint256",
          "name": "",
          "type": "uint256"
        }
      ],
      "stateMutability": "view",
      "type": "function"
    },
    {
      "inputs": [],
      "name": "isLeverageEnabled",
      "outputs": [
        {
          "internalType": "bool",
          "name": "",
          "type": "bool"
        }
      ],
      "stateMutability": "view",
      "type": "function"
    },
    {
      "inputs": [
        {
          "internalType": "address",
          "name": "",
          "type": "address"
        }
      ],
      "name": "isPositionKeeper",
      "outputs": [
        {
          "internalType": "bool",
          "name": "",
          "type": "bool"
        }
      ],
      "stateMutability": "view",
      "type": "function"
    },
    {
      "inputs": [
        {
          "internalType": "address",
          "name": "",
          "type": "address"
        }
      ],
      "name": "maxGlobalLongSizes",
      "outputs": [
        {
          "internalType": "uint256",
          "name": "",
          "type": "uint256"
        }
      ],
      "stateMutability": "view",
      "type": "function"
    },
    {
      "inputs": [
        {
          "internalType": "address",
          "name": "",
          "type": "address"
        }
      ],
      "name": "maxGlobalShortSizes",
      "outputs": [
        {
          "internalType": "uint256",
          "name": "",
          "type": "uint256"
        }
      ],
      "stateMutability": "view",
      "type": "function"
    },
    {
      "inputs": [],
      "name": "maxTimeDelay",
      "outputs": [
        {
          "internalType": "uint256",
          "name": "",
          "type": "uint256"
        }
      ],
      "stateMutability": "view",
      "type": "function"
    },
    {
      "inputs": [],
      "name": "minBlockDelayKeeper",
      "outputs": [
        {
          "internalType": "uint256",
          "name": "",
          "type": "uint256"
        }
      ],
      "stateMutability": "view",
      "type": "function"
    },
    {
      "inputs": [],
      "name": "minExecutionFee",
      "outputs": [
        {
          "internalType": "uint256",
          "name": "",
          "type": "uint256"
        }
      ],
      "stateMutability": "view",
      "type": "function"
    },
    {
      "inputs": [],
      "name": "minTimeDelayPublic",
      "outputs": [
        {
          "internalType": "uint256",
          "name": "",
          "type": "uint256"
        }
      ],
      "stateMutability": "view",
      "type": "function"
    },
    {
      "inputs": [],
      "name": "referralStorage",
      "outputs": [
        {
          "internalType": "address",
          "name": "",
          "type": "address"
        }
      ],
      "stateMutability": "view",
      "type": "function"
    },
    {
      "inputs": [],
      "name": "router",
      "outputs": [
        {
          "internalType": "address",
          "name": "",
          "type": "address"
        }
      ],
      "stateMutability": "view",
      "type": "function"
    },
    {
      "inputs": [
        {
          "internalType": "address payable",
          "name": "_receiver",
          "type": "address"
        },
        {
          "internalType": "uint256",
          "name": "_amount",
          "type": "uint256"
        }
      ],
      "name": "sendValue",
      "outputs": [],
      "stateMutability": "nonpayable",
      "type": "function"
    },
    {
      "inputs": [
        {
          "internalType": "address",
          "name": "_admin",
          "type": "address"
        }
      ],
      "name": "setAdmin",
      "outputs": [],
      "stateMutability": "nonpayable",
      "type": "function"
    },
    {
      "inputs": [
        {
          "internalType": "uint256",
          "name": "_callbackGasLimit",
          "type": "uint256"
        }
      ],
      "name": "setCallbackGasLimit",
      "outputs": [],
      "stateMutability": "nonpayable",
      "type": "function"
    },
    {
      "inputs": [
        {
          "internalType": "uint256",
          "name": "_minBlockDelayKeeper",
          "type": "uint256"
        },
        {
          "internalType": "uint256",
          "name": "_minTimeDelayPublic",
          "type": "uint256"
        },
        {
          "internalType": "uint256",
          "name": "_maxTimeDelay",
          "type": "uint256"
        }
      ],
      "name": "setDelayValues",
      "outputs": [],
      "stateMutability": "nonpayable",
      "type": "function"
    },
    {
      "inputs": [
        {
          "internalType": "uint256",
          "name": "_depositFee",
          "type": "uint256"
        }
      ],
      "name": "setDepositFee",
      "outputs": [],
      "stateMutability": "nonpayable",
      "type": "function"
    },
    {
      "inputs": [
        {
          "internalType": "address",
          "name": "_gov",
          "type": "address"
        }
      ],
      "name": "setGov",
      "outputs": [],
      "stateMutability": "nonpayable",
      "type": "function"
    },
    {
      "inputs": [
        {
          "internalType": "uint256",
          "name": "_increasePositionBufferBps",
          "type": "uint256"
        }
      ],
      "name": "setIncreasePositionBufferBps",
      "outputs": [],
      "stateMutability": "nonpayable",
      "type": "function"
    },
    {
      "inputs": [
        {
          "internalType": "bool",
          "name": "_isLeverageEnabled",
          "type": "bool"
        }
      ],
      "name": "setIsLeverageEnabled",
      "outputs": [],
      "stateMutability": "nonpayable",
      "type": "function"
    },
    {
      "inputs": [
        {
          "internalType": "address[]",
          "name": "_tokens",
          "type": "address[]"
        },
        {
          "internalType": "uint256[]",
          "name": "_longSizes",
          "type": "uint256[]"
        },
        {
          "internalType": "uint256[]",
          "name": "_shortSizes",
          "type": "uint256[]"
        }
      ],
      "name": "setMaxGlobalSizes",
      "outputs": [],
      "stateMutability": "nonpayable",
      "type": "function"
    },
    {
      "inputs": [
        {
          "internalType": "uint256",
          "name": "_minExecutionFee",
          "type": "uint256"
        }
      ],
      "name": "setMinExecutionFee",
      "outputs": [],
      "stateMutability": "nonpayable",
      "type": "function"
    },
    {
      "inputs": [
        {
          "internalType": "address",
          "name": "_account",
          "type": "address"
        },
        {
          "internalType": "bool",
          "name": "_isActive",
          "type": "bool"
        }
      ],
      "name": "setPositionKeeper",
      "outputs": [],
      "stateMutability": "nonpayable",
      "type": "function"
    },
    {
      "inputs": [
        {
          "internalType": "address",
          "name": "_referralStorage",
          "type": "address"
        }
      ],
      "name": "setReferralStorage",
      "outputs": [],
      "stateMutability": "nonpayable",
      "type": "function"
    },
    {
      "inputs": [
        {
          "internalType": "uint256",
          "name": "_increasePositionRequestKeysStart",
          "type": "uint256"
        },
        {
          "internalType": "uint256",
          "name": "_decreasePositionRequestKeysStart",
          "type": "uint256"
        }
      ],
      "name": "setRequestKeysStartValues",
      "outputs": [],
      "stateMutability": "nonpayable",
      "type": "function"
    },
    {
      "inputs": [],
      "name": "shortsTracker",
      "outputs": [
        {
          "internalType": "address",
          "name": "",
          "type": "address"
        }
      ],
      "stateMutability": "view",
      "type": "function"
    },
    {
      "inputs": [],
      "name": "vault",
      "outputs": [
        {
          "internalType": "address",
          "name": "",
          "type": "address"
        }
      ],
      "stateMutability": "view",
      "type": "function"
    },
    {
      "inputs": [],
      "name": "weth",
      "outputs": [
        {
          "internalType": "address",
          "name": "",
          "type": "address"
        }
      ],
      "stateMutability": "view",
      "type": "function"
    },
    {
      "inputs": [
        {
          "internalType": "address",
          "name": "_token",
          "type": "address"
        },
        {
          "internalType": "address",
          "name": "_receiver",
          "type": "address"
        }
      ],
      "name": "withdrawFees",
      "outputs": [],
      "stateMutability": "nonpayable",
      "type": "function"
    },
    {
      "stateMutability": "payable",
      "type": "receive"
    }
  ],
  "bytecode": "0x608060405260646008556011805460ff191660011790553480156200002357600080fd5b5060405162005b3138038062005b31833981810160405260c08110156200004957600080fd5b508051602082015160408301516060840151608085015160a090950151600160008181558154336001600160a01b031991821681179093556003805482166001600160a01b03998a16179055600580548216978916979097179096556006805487169588169590951790945560079690965560048054851695909216949094179055600280549092169093179055600d55615a46908190620000eb90396000f3fe6080604052600436106102525760003560e01c80626cc35e146102a757806304225954146102d85780631045c74e14610314578063126082cf1461034757806312d43a511461035c5780631bca8cf0146103715780631ce9cb8f146103865780631f285106146103b9578063225fc9fd1461045b578063233bfe3b146104a857806324a084df146104d257806324f746971461050b578063308aa81f146105205780633422ead11461055057806336eba48a1461058b5780633a2a80c7146105be5780633e72a262146105d35780633fc8cef3146105e85780634067b132146105fd5780634278555f14610633578063490ae2101461065d5780635841fcaa146106875780635b88e8c61461069c5780635d5c22e81461077557806360a362e2146107ef57806362f8a3fe14610828578063633451de1461086157806363ae210314610894578063657bc5d0146108a957806367a52793146108be578063704b6c02146108d35780637be7d141146109065780637c2eb9f7146109f15780638a54942f14610a1d57806395e9bbd714610a475780639698d25a14610a7157806398d1e03a14610aa45780639b57862014610ab9578063ae4d7f9a14610ace578063cb0269c914610b01578063cfad57a214610b16578063e1f21c6714610b49578063ef12c67e14610b8c578063f255527814610d3e578063f2ae372f14610d79578063f2cea6a514610e58578063f851a44014610e93578063f887ea4014610ea8578063fa44457714610ebd578063faf990f314610ef0578063fbfa77cf14610f89578063fc2cee6214610f9e576102a2565b366102a2576006546001600160a01b031633146102a05760405162461bcd60e51b81526004018080602001828103825260238152602001806159c46023913960400191505060405180910390fd5b005b600080fd5b3480156102b357600080fd5b506102bc610fc8565b604080516001600160a01b039092168252519081900360200190f35b3480156102e457600080fd5b50610302600480360360208110156102fb57600080fd5b5035610fd7565b60408051918252519081900360200190f35b34801561032057600080fd5b506103026004803603602081101561033757600080fd5b50356001600160a01b0316610ff5565b34801561035357600080fd5b50610302611007565b34801561036857600080fd5b506102bc61100d565b34801561037d57600080fd5b5061030261101c565b34801561039257600080fd5b50610302600480360360208110156103a957600080fd5b50356001600160a01b0316611022565b3480156103c557600080fd5b506103e3600480360360208110156103dc57600080fd5b5035611034565b604080516001600160a01b039e8f1681529c8e1660208e01528c81019b909b5260608c019990995296151560808b0152948a1660a08a015260c089019390935260e088019190915261010087015261012086015261014085015215156101608401529092166101808201529051908190036101a00190f35b34801561046757600080fd5b506104946004803603604081101561047e57600080fd5b50803590602001356001600160a01b03166110a7565b604080519115158252519081900360200190f35b3480156104b457600080fd5b506102a0600480360360208110156104cb57600080fd5b5035611492565b3480156104de57600080fd5b506102a0600480360360408110156104f557600080fd5b506001600160a01b03813516906020013561151a565b34801561051757600080fd5b5061030261157e565b34801561052c57600080fd5b506102a06004803603604081101561054357600080fd5b5080359060200135611584565b34801561055c57600080fd5b506102a06004803603604081101561057357600080fd5b506001600160a01b038135169060200135151561161a565b34801561059757600080fd5b50610494600480360360208110156105ae57600080fd5b50356001600160a01b03166116c7565b3480156105ca57600080fd5b506103026116dc565b3480156105df57600080fd5b506104946116e2565b3480156105f457600080fd5b506102bc6116eb565b34801561060957600080fd5b506102a06004803603606081101561062057600080fd5b50803590602081013590604001356116fa565b34801561063f57600080fd5b506103026004803603602081101561065657600080fd5b503561179b565b34801561066957600080fd5b506102a06004803603602081101561068057600080fd5b50356117a8565b34801561069357600080fd5b50610302611830565b61030260048036036101208110156106b357600080fd5b810190602081018135600160201b8111156106cd57600080fd5b8201836020820111156106df57600080fd5b803590602001918460208302840111600160201b8311171561070057600080fd5b919080806020026020016040519081016040528093929190818152602001838360200280828437600092019190915250929550505081356001600160a01b03908116935060208301359260408101359250606081013515159160808201359160a08101359160c08201359160e0013516611836565b34801561078157600080fd5b5061079f6004803603602081101561079857600080fd5b50356119f2565b60408051602080825283518183015283519192839290830191858101910280838360005b838110156107db5781810151838201526020016107c3565b505050509050019250505060405180910390f35b3480156107fb57600080fd5b506104946004803603604081101561081257600080fd5b50803590602001356001600160a01b0316611b28565b34801561083457600080fd5b506103026004803603604081101561084b57600080fd5b506001600160a01b038135169060200135611ec6565b34801561086d57600080fd5b506103026004803603602081101561088457600080fd5b50356001600160a01b0316611f0c565b3480156108a057600080fd5b50610302611f1e565b3480156108b557600080fd5b506102bc611f24565b3480156108ca57600080fd5b50610302611f33565b3480156108df57600080fd5b506102a0600480360360208110156108f657600080fd5b50356001600160a01b0316611f39565b610302600480360361016081101561091d57600080fd5b810190602081018135600160201b81111561093757600080fd5b82018360208201111561094957600080fd5b803590602001918460208302840111600160201b8311171561096a57600080fd5b919080806020026020016040519081016040528093929190818152602001838360200280828437600092019190915250929550505081356001600160a01b039081169350602083013592604081013592506060810135151591608082013581169160a08101359160c08201359160e081013591610100820135151591610120013516611fda565b3480156109fd57600080fd5b506102a060048036036020811015610a1457600080fd5b5035151561218a565b348015610a2957600080fd5b506102a060048036036020811015610a4057600080fd5b503561221e565b348015610a5357600080fd5b5061079f60048036036020811015610a6a57600080fd5b50356122a6565b348015610a7d57600080fd5b5061030260048036036020811015610a9457600080fd5b50356001600160a01b03166123d4565b348015610ab057600080fd5b506103026123e6565b348015610ac557600080fd5b506103026123ec565b348015610ada57600080fd5b506102a060048036036020811015610af157600080fd5b50356001600160a01b03166123f2565b348015610b0d57600080fd5b50610302612493565b348015610b2257600080fd5b506102a060048036036020811015610b3957600080fd5b50356001600160a01b0316612499565b348015610b5557600080fd5b506102a060048036036060811015610b6c57600080fd5b506001600160a01b03813581169160208101359091169060400135612508565b348015610b9857600080fd5b506102a060048036036060811015610baf57600080fd5b810190602081018135600160201b811115610bc957600080fd5b820183602082011115610bdb57600080fd5b803590602001918460208302840111600160201b83111715610bfc57600080fd5b9190808060200260200160405190810160405280939291908181526020018383602002808284376000920191909152509295949360208101935035915050600160201b811115610c4b57600080fd5b820183602082011115610c5d57600080fd5b803590602001918460208302840111600160201b83111715610c7e57600080fd5b9190808060200260200160405190810160405280939291908181526020018383602002808284376000920191909152509295949360208101935035915050600160201b811115610ccd57600080fd5b820183602082011115610cdf57600080fd5b803590602001918460208302840111600160201b83111715610d0057600080fd5b9190808060200260200160405190810160405280939291908181526020018383602002808284376000920191909152509295506125dd945050505050565b348015610d4a57600080fd5b506102a060048036036040811015610d6157600080fd5b506001600160a01b03813581169160200135166127cc565b6103026004803603610140811015610d9057600080fd5b810190602081018135600160201b811115610daa57600080fd5b820183602082011115610dbc57600080fd5b803590602001918460208302840111600160201b83111715610ddd57600080fd5b919080806020026020016040519081016040528093929190818152602001838360200280828437600092019190915250929550506001600160a01b038335811694506020840135936040810135935060608101359250608081013515159160a08201359160c08101359160e0820135916101000135166128b0565b348015610e6457600080fd5b50610e6d612a93565b604080519485526020850193909352838301919091526060830152519081900360800190f35b348015610e9f57600080fd5b506102bc612aa5565b348015610eb457600080fd5b506102bc612ab4565b348015610ec957600080fd5b5061030260048036036020811015610ee057600080fd5b50356001600160a01b0316612ac3565b348015610efc57600080fd5b50610f1a60048036036020811015610f1357600080fd5b5035612ad5565b604080516001600160a01b039d8e1681529b8d1660208d01528b81019a909a5260608b019890985260808a019690965293151560a089015260c088019290925260e087015261010086015261012085015215156101408401529092166101608201529051908190036101800190f35b348015610f9557600080fd5b506102bc612b49565b348015610faa57600080fd5b506102a060048036036020811015610fc157600080fd5b5035612b58565b6009546001600160a01b031681565b60128181548110610fe457fe5b600091825260209091200154905081565b600b6020526000908152604090205481565b61271081565b6001546001600160a01b031681565b60155481565b600a6020526000908152604090205481565b601b602052600090815260409020805460028201546003830154600484015460058501546006860154600787015460088801546009890154600a8a0154600b909a01546001600160a01b03998a169a988a16999798969760ff80881698610100988990048316989093918216929104168d565b6000600260005414156110ef576040805162461bcd60e51b815260206004820152601f60248201526000805160206157ff833981519152604482015290519081900360640190fd5b60026000556110fc6155fb565b60008481526019602090815260409182902082516101a08101845281546001600160a01b031681526001820180548551818602810186019096528086529194929385810193929083018282801561117c57602002820191906000526020600020905b81546001600160a01b0316815260019091019060200180831161115e575b505050918352505060028201546001600160a01b039081166020830152600383015460408301526004830154606083015260058301546080830152600683015460ff908116151560a0840152600784015460c0840152600884015460e0840152600984015461010080850191909152600a850154610120850152600b90940154908116151561014084015292909204821661016090910152815191925016611228576001915050611487565b60006112438261012001518361014001518460000151612be0565b90508061125557600092505050611487565b600085815260196020526040812080546001600160a01b03191681559061127f6001830182615682565b506002810180546001600160a01b0319169055600060038201819055600482018190556005820181905560068201805460ff19169055600782018190556008820181905560098201819055600a820155600b0180546001600160a81b031916905561016082015115611302576112fd82606001518360000151612d13565b611340565b61134082600001518360600151846020015160008151811061132057fe5b60200260200101516001600160a01b0316612da19092919063ffffffff16565b61134f82610100015185612d13565b81600001516001600160a01b03167f35b638e650e2328786fb405bd69d2083dbedc018d086662e74b775b4f1dae4bf83602001518460400151856060015186608001518760a001518860c001518960e001518a61010001516113bf8c610120015143612df890919063ffffffff16565b6101408d01516113d0904290612df8565b60405180806020018b6001600160a01b031681526020018a8152602001898152602001888152602001871515815260200186815260200185815260200184815260200183815260200182810382528c818151815260200191508051906020019060200280838360005b83811015611451578181015183820152602001611439565b505050509050019b50505050505050505050505060405180910390a26114808261018001518660006001612e3a565b6001925050505b600160005592915050565b6002546001600160a01b031633146114df576040805162461bcd60e51b815260206004820152601e60248201526000805160206158fa833981519152604482015290519081900360640190fd5b60088190556040805182815290517f21167d0d4661af93817ebce920f18986eed3d75d5e1c03f2aed05efcbafbc4529181900360200190a150565b6001546001600160a01b03163314611567576040805162461bcd60e51b8152602060048201526015602482015260008051602061581f833981519152604482015290519081900360640190fd5b61157a6001600160a01b03831682612f40565b5050565b60165481565b6002546001600160a01b031633146115d1576040805162461bcd60e51b815260206004820152601e60248201526000805160206158fa833981519152604482015290519081900360640190fd5b60148290556015819055604080518381526020810183905281517febb0f666150f4be5b60c45df8f3e49992510b0128027fe58eea6110f296493bc929181900390910190a15050565b6002546001600160a01b03163314611667576040805162461bcd60e51b815260206004820152601e60248201526000805160206158fa833981519152604482015290519081900360640190fd5b6001600160a01b038216600081815260176020908152604091829020805460ff1916851515908117909155825190815291517ffbabc02389290a451c6e600d05bf9887b99bfad39d8e1237e4e3df042e4941fe9281900390910190a25050565b60176020526000908152604090205460ff1681565b600f5481565b60115460ff1681565b6006546001600160a01b031681565b6002546001600160a01b03163314611747576040805162461bcd60e51b815260206004820152601e60248201526000805160206158fa833981519152604482015290519081900360640190fd5b600e839055600f8290556010819055604080518481526020810184905280820183905290517fb98e759701eaca2e60c25e91109003c1c7442ef731b5d569037063005da8254d9181900360600190a1505050565b60138181548110610fe457fe5b6002546001600160a01b031633146117f5576040805162461bcd60e51b815260206004820152601e60248201526000805160206158fa833981519152604482015290519081900360640190fd5b60078190556040805182815290517f974fd3c1fcb4653dfc4fb740c4c692cd212d55c28f163f310128cb64d83006759181900360200190a150565b600e5481565b60006002600054141561187e576040805162461bcd60e51b815260206004820152601f60248201526000805160206157ff833981519152604482015290519081900360640190fd5b6002600055600d548410156118c0576040805162461bcd60e51b815260206004820152600360248201526266656560e81b604482015290519081900360640190fd5b833410156118fb576040805162461bcd60e51b81526020600482015260036024820152621d985b60ea1b604482015290519081900360640190fd5b89516001148061190c575089516002145b611943576040805162461bcd60e51b81526020600482015260036024820152623632b760e91b604482015290519081900360640190fd5b6006548a516001600160a01b03909116908b9060009061195f57fe5b60200260200101516001600160a01b0316146119ab576040805162461bcd60e51b815260206004808301919091526024820152630e0c2e8d60e31b604482015290519081900360640190fd5b6119b3613025565b6119bc83613091565b60006119c83486612df8565b90506119de338c8c848d8d8d8d8d60018d613105565b60016000559b9a5050505050505050505050565b60606119fc6156a0565b6000838152601b602090815260409182902082516101c08101845281546001600160a01b0316815260018201805485518186028101860190965280865291949293858101939290830182828015611a7c57602002820191906000526020600020905b81546001600160a01b03168152600190910190602001808311611a5e575b505050918352505060028201546001600160a01b039081166020808401919091526003840154604084015260048401546060840152600584015460ff8082161515608086015261010091829004841660a0860152600686015460c0860152600786015460e08601526008860154828601526009860154610120860152600a860154610140860152600b909501549485161515610160850152909304166101809091015201519392505050565b600060026000541415611b70576040805162461bcd60e51b815260206004820152601f60248201526000805160206157ff833981519152604482015290519081900360640190fd5b6002600055611b7d6156a0565b6000848152601b602090815260409182902082516101c08101845281546001600160a01b0316815260018201805485518186028101860190965280865291949293858101939290830182828015611bfd57602002820191906000526020600020905b81546001600160a01b03168152600190910190602001808311611bdf575b505050918352505060028201546001600160a01b0390811660208301526003830154604083015260048301546060830152600583015460ff8082161515608085015261010091829004831660a0850152600685015460c0850152600785015460e08501526008850154828501526009850154610120850152600a850154610140850152600b909401549384161515610160840152909204821661018090910152815191925016611cb1576001915050611487565b6000611ccc8261014001518361016001518460000151612be0565b905080611cde57600092505050611487565b6000858152601b6020526040812080546001600160a01b031916815590611d086001830182615682565b506002810180546001600160a01b0319169055600060038201819055600482018190556005820180546001600160a81b031990811690915560068301829055600783018290556008830182905560098301829055600a830191909155600b90910180549091169055610120820151611d809085612d13565b81600001516001600160a01b03167f87abfd78e844f28318363bdf3da99eab2f4a2da9ff7ae365484507f7b6c3f80583602001518460400151856060015186608001518760a001518860c001518960e001518a61010001518b6101200151611df68d610140015143612df890919063ffffffff16565b6101608e0151611e07904290612df8565b60405180806020018c6001600160a01b031681526020018b81526020018a81526020018915158152602001886001600160a01b0316815260200187815260200186815260200185815260200184815260200183815260200182810382528d818151815260200191508051906020019060200280838360005b83811015611e97578181015183820152602001611e7f565b505050509050019c5050505050505050505050505060405180910390a2611480826101a0015186600080612e3a565b6000828260405160200180836001600160a01b031660601b8152601401828152602001925050506040516020818303038152906040528051906020012090505b92915050565b60186020526000908152604090205481565b600d5481565b6004546001600160a01b031681565b60075481565b6001546001600160a01b03163314611f86576040805162461bcd60e51b8152602060048201526015602482015260008051602061581f833981519152604482015290519081900360640190fd5b600280546001600160a01b0383166001600160a01b0319909116811790915560408051918252517f5a272403b402d892977df56625f4164ccaf70ca3863991c43ecfe76a6905b0a19181900360200190a150565b600060026000541415612022576040805162461bcd60e51b815260206004820152601f60248201526000805160206157ff833981519152604482015290519081900360640190fd5b6002600055600d54841015612064576040805162461bcd60e51b815260206004820152600360248201526266656560e81b604482015290519081900360640190fd5b83341461209e576040805162461bcd60e51b81526020600482015260036024820152621d985b60ea1b604482015290519081900360640190fd5b8b51600114806120af57508b516002145b6120e6576040805162461bcd60e51b81526020600482015260036024820152623632b760e91b604482015290519081900360640190fd5b8215612159576006548c516001600160a01b03909116908d90600019810190811061210d57fe5b60200260200101516001600160a01b031614612159576040805162461bcd60e51b815260206004808301919091526024820152630e0c2e8d60e31b604482015290519081900360640190fd5b612161613025565b612175338d8d8d8d8d8d8d8d8d8d8d61330b565b60016000559c9b505050505050505050505050565b6002546001600160a01b031633146121d7576040805162461bcd60e51b815260206004820152601e60248201526000805160206158fa833981519152604482015290519081900360640190fd5b6011805482151560ff19909116811790915560408051918252517f4eb87a5935d402aa24c01b45bfb30adefcd2328b480f2d967864de4b64ea929f9181900360200190a150565b6002546001600160a01b0316331461226b576040805162461bcd60e51b815260206004820152601e60248201526000805160206158fa833981519152604482015290519081900360640190fd5b60168190556040805182815290517f22bd2c9f980325d046be74aaef5fc76df4a2bc3fbc7c5a1200fcc79fe80dab6c9181900360200190a150565b60606122b06155fb565b60008381526019602090815260409182902082516101a08101845281546001600160a01b031681526001820180548551818602810186019096528086529194929385810193929083018282801561233057602002820191906000526020600020905b81546001600160a01b03168152600190910190602001808311612312575b505050918352505060028201546001600160a01b03908116602080840191909152600384015460408401526004840154606084015260058401546080840152600684015460ff908116151560a0850152600785015460c0850152600885015460e0850152600985015461010080860191909152600a860154610120860152600b90950154908116151561014085015293909304166101609091015201519392505050565b600c6020526000908152604090205481565b60085481565b60145481565b6002546001600160a01b0316331461243f576040805162461bcd60e51b815260206004820152601e60248201526000805160206158fa833981519152604482015290519081900360640190fd5b600980546001600160a01b0383166001600160a01b0319909116811790915560408051918252517f828abcccea18192c21d645e575652c49e20b986dab777906fc473d056b01b6a89181900360200190a150565b60105481565b6001546001600160a01b031633146124e6576040805162461bcd60e51b8152602060048201526015602482015260008051602061581f833981519152604482015290519081900360640190fd5b600180546001600160a01b0319166001600160a01b0392909216919091179055565b6001546001600160a01b03163314612555576040805162461bcd60e51b8152602060048201526015602482015260008051602061581f833981519152604482015290519081900360640190fd5b826001600160a01b031663095ea7b383836040518363ffffffff1660e01b815260040180836001600160a01b0316815260200182815260200192505050602060405180830381600087803b1580156125ac57600080fd5b505af11580156125c0573d6000803e3d6000fd5b505050506040513d60208110156125d657600080fd5b5050505050565b6002546001600160a01b0316331461262a576040805162461bcd60e51b815260206004820152601e60248201526000805160206158fa833981519152604482015290519081900360640190fd5b60005b83518110156126c557600084828151811061264457fe5b6020026020010151905083828151811061265a57fe5b6020026020010151600b6000836001600160a01b03166001600160a01b031681526020019081526020016000208190555082828151811061269757fe5b6020908102919091018101516001600160a01b039092166000908152600c909152604090205560010161262d565b507fae32d569b058895b9620d6552b09aaffedc9a6f396be4d595a224ad09f8b213983838360405180806020018060200180602001848103845287818151815260200191508051906020019060200280838360005b8381101561273257818101518382015260200161271a565b50505050905001848103835286818151815260200191508051906020019060200280838360005b83811015612771578181015183820152602001612759565b50505050905001848103825285818151815260200191508051906020019060200280838360005b838110156127b0578181015183820152602001612798565b50505050905001965050505050505060405180910390a1505050565b6002546001600160a01b03163314612819576040805162461bcd60e51b815260206004820152601e60248201526000805160206158fa833981519152604482015290519081900360640190fd5b6001600160a01b0382166000908152600a60205260409020548061283d575061157a565b6001600160a01b0383166000818152600a6020526040812055612861908383612da1565b604080516001600160a01b0380861682528416602082015280820183905290517f4f1b51dd7a2fcb861aa2670f668be66835c4ee12b4bbbf037e4d0018f39819e49181900360600190a1505050565b6000600260005414156128f8576040805162461bcd60e51b815260206004820152601f60248201526000805160206157ff833981519152604482015290519081900360640190fd5b6002600055600d5484101561293a576040805162461bcd60e51b815260206004820152600360248201526266656560e81b604482015290519081900360640190fd5b833414612974576040805162461bcd60e51b81526020600482015260036024820152621d985b60ea1b604482015290519081900360640190fd5b8a516001148061298557508a516002145b6129bc576040805162461bcd60e51b81526020600482015260036024820152623632b760e91b604482015290519081900360640190fd5b6129c4613025565b6129cd83613091565b8815612a7f576005548b516001600160a01b0390911690631b827878908d906000906129f557fe5b602002602001015133308d6040518563ffffffff1660e01b815260040180856001600160a01b03168152602001846001600160a01b03168152602001836001600160a01b03168152602001828152602001945050505050600060405180830381600087803b158015612a6657600080fd5b505af1158015612a7a573d6000803e3d6000fd5b505050505b6119de338c8c8c8c8c8c8c8c60008c613105565b60145460125460155460135490919293565b6002546001600160a01b031681565b6005546001600160a01b031681565b601a6020526000908152604090205481565b6019602052600090815260409020805460028201546003830154600484015460058501546006860154600787015460088801546009890154600a8a0154600b909a01546001600160a01b03998a169a988a169997989697959660ff958616969495939492939092908216916101009004168c565b6003546001600160a01b031681565b6002546001600160a01b03163314612ba5576040805162461bcd60e51b815260206004820152601e60248201526000805160206158fa833981519152604482015290519081900360640190fd5b600d8190556040805182815290517f52a8358457e20bbb36e4086b83fb0749599f1893fe4c35a876c46dc4886d12db9181900360200190a150565b60008033301480612c0057503360009081526017602052604090205460ff165b60115490915060ff16158015612c14575080155b15612c4c576040805162461bcd60e51b815260206004820152600360248201526234303360e81b604482015290519081900360640190fd5b8015612c725743612c68600e548761355490919063ffffffff16565b1115915050612d0c565b336001600160a01b03841614612cb5576040805162461bcd60e51b815260206004820152600360248201526234303360e81b604482015290519081900360640190fd5b42612ccb600f548661355490919063ffffffff16565b1115612d06576040805162461bcd60e51b815260206004820152600560248201526464656c617960d81b604482015290519081900360640190fd5b60019150505b9392505050565b60065460408051632e1a7d4d60e01b81526004810185905290516001600160a01b0390921691632e1a7d4d9160248082019260009290919082900301818387803b158015612d6057600080fd5b505af1158015612d74573d6000803e3d6000fd5b50506040516001600160a01b038416925084156108fc02915084906000818181858888f150505050505050565b604080516001600160a01b038416602482015260448082018490528251808303909101815260649091019091526020810180516001600160e01b031663a9059cbb60e01b179052612df39084906135ac565b505050565b6000612d0c83836040518060400160405280601e81526020017f536166654d6174683a207375627472616374696f6e206f766572666c6f77000081525061365d565b6001600160a01b038416612e4d57612f3a565b612e5f846001600160a01b03166136f4565b612e6857612f3a565b60165480612e765750612f3a565b6000856001600160a01b031663fb92e508838787876040518563ffffffff1660e01b815260040180848152602001831515815260200182151581526020019350505050600060405180830381600088803b158015612ed357600080fd5b5087f193505050508015612ee5575060015b612eee57612ef2565b5060015b604080516001600160a01b0388168152821515602082015281517f46ddbd62fc1a7626fe9c43026cb0694aec0b031fe81ac66fb4cfe9381dc6fe72929181900390910190a150505b50505050565b80471015612f95576040805162461bcd60e51b815260206004820152601d60248201527f416464726573733a20696e73756666696369656e742062616c616e6365000000604482015290519081900360640190fd5b6040516000906001600160a01b0384169083908381818185875af1925050503d8060008114612fe0576040519150601f19603f3d011682016040523d82523d6000602084013e612fe5565b606091505b5050905080612df35760405162461bcd60e51b815260040180806020018281038252603a81526020018061586a603a913960400191505060405180910390fd5b341561308f57600660009054906101000a90046001600160a01b03166001600160a01b031663d0e30db0346040518263ffffffff1660e01b81526004016000604051808303818588803b15801561307b57600080fd5b505af11580156125d6573d6000803e3d6000fd5b565b80158015906130aa57506009546001600160a01b031615155b1561310257600954604080516356b4b2ad60e01b81523360048201526024810184905290516001600160a01b03909216916356b4b2ad9160448082019260009290919082900301818387803b15801561307b57600080fd5b50565b600061310f6155fb565b604051806101a001604052808e6001600160a01b031681526020018d81526020018c6001600160a01b031681526020018b81526020018a815260200189815260200188151581526020018781526020018681526020014381526020014281526020018515158152602001846001600160a01b03168152509050600080613194836136fa565b915091508e6001600160a01b03167f5265bc4952da402633b3fc35f67ab4245493a0ab94dd8ab123667c8d45a4485c8f8f8f8f8f8f8f8f8b60016012805490500343423a60405180806020018e6001600160a01b031681526020018d81526020018c81526020018b81526020018a1515815260200189815260200188815260200187815260200186815260200185815260200184815260200183815260200182810382528f818151815260200191508051906020019060200280838360005b8381101561326b578181015183820152602001613253565b505050509050019e50505050505050505050505050505060405180910390a26132f881306001600160a01b03166312d43a516040518163ffffffff1660e01b815260040160206040518083038186803b1580156132c757600080fd5b505afa1580156132db573d6000803e3d6000fd5b505050506040513d60208110156132f157600080fd5b5051613898565b509e9d5050505050505050505050505050565b60006133156156a0565b604051806101c001604052808f6001600160a01b031681526020018e81526020018d6001600160a01b031681526020018c81526020018b81526020018a15158152602001896001600160a01b031681526020018881526020018781526020018681526020014381526020014281526020018515158152602001846001600160a01b031681525090506000806133a983613c8c565b9150915082600001516001600160a01b03167f81ed0476a7e785a9e4728fffd679ea97176ca1ac85e1003462558bb5677da57b84602001518560400151866060015187608001518860a001518960c001518a60e001518b61010001518c61012001518c600160138054905003434260405180806020018e6001600160a01b031681526020018d81526020018c81526020018b151581526020018a6001600160a01b0316815260200189815260200188815260200187815260200186815260200185815260200184815260200183815260200182810382528f818151815260200191508051906020019060200280838360005b838110156134b357818101518382015260200161349b565b505050509050019e50505050505050505050505050505060405180910390a261354081306001600160a01b03166312d43a516040518163ffffffff1660e01b815260040160206040518083038186803b15801561350f57600080fd5b505afa158015613523573d6000803e3d6000fd5b505050506040513d602081101561353957600080fd5b5051613e35565b509f9e505050505050505050505050505050565b600082820183811015612d0c576040805162461bcd60e51b815260206004820152601b60248201527a536166654d6174683a206164646974696f6e206f766572666c6f7760281b604482015290519081900360640190fd5b6060613601826040518060400160405280602081526020017f5361666545524332303a206c6f772d6c6576656c2063616c6c206661696c6564815250856001600160a01b03166142339092919063ffffffff16565b805190915015612df35780806020019051602081101561362057600080fd5b5051612df35760405162461bcd60e51b815260040180806020018281038252602a8152602001806159e7602a913960400191505060405180910390fd5b600081848411156136ec5760405162461bcd60e51b81526004018080602001828103825283818151815260200191508051906020019080838360005b838110156136b1578181015183820152602001613699565b50505050905090810190601f1680156136de5780820380516001836020036101000a031916815260200191505b509250505060405180910390fd5b505050900390565b3b151590565b80516001600160a01b038116600090815260186020526040812054909182918290613726906001613554565b6001600160a01b038316600090815260186020526040812082905590915061374e8383611ec6565b6000818152601960209081526040909120885181546001600160a01b0319166001600160a01b039091161781558882015180519394508993919261379a92600185019290910190615737565b5060408201516002820180546001600160a01b039283166001600160a01b0319909116179055606083015160038301556080830151600483015560a0830151600583015560c083015160068301805491151560ff1992831617905560e084015160078401556101008085015160088501556101208501516009850155610140850151600a850155610160850151600b90940180546101809096015190931602610100600160a81b0319931515949091169390931791909116919091179055601280546001810182556000919091527fbb8a6a4669ba250d26cd7a459eca9d215f8307e33aebe50379bc5a3617ec344401819055909350915050915091565b60006138a26155fb565b60008481526019602090815260409182902082516101a08101845281546001600160a01b031681526001820180548551818602810186019096528086529194929385810193929083018282801561392257602002820191906000526020600020905b81546001600160a01b03168152600190910190602001808311613904575b505050918352505060028201546001600160a01b039081166020830152600383015460408301526004830154606083015260058301546080830152600683015460ff908116151560a0840152600784015460c0840152600884015460e0840152600984015461010080850191909152600a850154610120850152600b909401549081161515610140840152929092048216610160909101528151919250166139ce576001915050611f06565b600084815260196020526040812080546001600160a01b0319168155906139f86001830182615682565b506002810180546001600160a01b0319169055600060038201819055600482018190556005820181905560068201805460ff19169055600782018190556008820181905560098201819055600a820155600b0180546001600160a81b0319169055606081015115613b0557606081015160208201515160011015613ab457600354606083015160208401518051613a9e936001600160a01b031692919060009061132057fe5b613ab1826020015183608001513061424a565b90505b6000613ad43384602001518486604001518760c001518860a001516142c8565b60035460208501518051929350613b02926001600160a01b0390921691849190600019810190811061132057fe5b50505b805160208201518051613b439291906000198101908110613b2257fe5b602002602001015183604001518460a001518560c001518660e001516143a7565b613b5281610100015184612d13565b80600001516001600160a01b03167f1be316b94d38c07bd41cdb4913772d0a0a82802786a2f8b657b6e85dbcdfc64182602001518360400151846060015185608001518660a001518760c001518860e00151896101000151613bc28b610120015143612df890919063ffffffff16565b6101408c0151613bd3904290612df8565b60405180806020018b6001600160a01b031681526020018a8152602001898152602001888152602001871515815260200186815260200185815260200184815260200183815260200182810382528c818151815260200191508051906020019060200280838360005b83811015613c54578181015183820152602001613c3c565b505050509050019b50505050505050505050505060405180910390a2613c8281610180015185600180612e3a565b5060019392505050565b80516001600160a01b0381166000908152601a6020526040812054909182918290613cb8906001613554565b6001600160a01b0383166000908152601a60205260408120829055909150613ce08383611ec6565b6000818152601b60209081526040909120885181546001600160a01b0319166001600160a01b0390911617815588820151805193945089939192613d2c92600185019290910190615737565b5060408201516002820180546001600160a01b039283166001600160a01b0319909116179055606083015160038301556080830151600483015560a083015160058301805460c08601518416610100908102610100600160a81b031994151560ff199384161785161790925560e0860151600686015581860151600786015561012086015160088601556101408601516009860155610160860151600a860155610180860151600b90950180546101a090970151909416909102931515941693909317909216179055601380546001810182556000919091527f66de8ffda797e3de9c05e8fc57b3bf0ec28a930d40b0d285d93c06501cf6a09001819055909350915050915091565b6000613e3f6156a0565b6000848152601b602090815260409182902082516101c08101845281546001600160a01b0316815260018201805485518186028101860190965280865291949293858101939290830182828015613ebf57602002820191906000526020600020905b81546001600160a01b03168152600190910190602001808311613ea1575b505050918352505060028201546001600160a01b0390811660208301526003830154604083015260048301546060830152600583015460ff8082161515608085015261010091829004831660a0850152600685015460c0850152600785015460e08501526008850154828501526009850154610120850152600a850154610140850152600b909401549384161515610160840152909204821661018090910152815191925016613f73576001915050611f06565b6000848152601b6020526040812080546001600160a01b031916815590613f9d6001830182615682565b506002810180546001600160a01b0319169055600060038201819055600482018190556005820180546001600160a81b031990811690915560068301829055600783018290556008830182905560098301829055600a8301829055600b9092018054909216909155815160208301518051614043929190849061401c57fe5b60200260200101518460400151856060015186608001518760a00151308960e001516147af565b905080156140d25760018260200151511115614093576003546020830151805161407c926001600160a01b031691849160009061132057fe5b61409082602001518361010001513061424a565b90505b816101800151156140b1576140ac818360c00151612d13565b6140d2565b6140d28260c001518284602001516001866020015151038151811061132057fe5b6140e182610120015185612d13565b81600001516001600160a01b03167f21435c5b618d77ff3657140cd3318e2cffaebc5e0e1b7318f56a9ba4044c3ed283602001518460400151856060015186608001518760a001518860c001518960e001518a61010001518b61012001516141578d610140015143612df890919063ffffffff16565b6101608e0151614168904290612df8565b60405180806020018c6001600160a01b031681526020018b81526020018a81526020018915158152602001886001600160a01b0316815260200187815260200186815260200185815260200184815260200183815260200182810382528d818151815260200191508051906020019060200280838360005b838110156141f85781810151838201526020016141e0565b505050509050019c5050505050505050505050505060405180910390a2614228826101a001518660016000612e3a565b506001949350505050565b60606142428484600085614c48565b949350505050565b60008351600214156142915761428a8460008151811061426657fe5b60200260200101518560018151811061427b57fe5b60200260200101518585614da4565b9050612d0c565b60405162461bcd60e51b815260040180806020018281038252602981526020018061599b6029913960400191505060405180910390fd5b6000806142d9888888888888614e7a565b9050801561439857600061431061271061430a614303600754612710612df890919063ffffffff16565b8a90615057565b906150b0565b9050600061431e8883612df8565b905060008960018b51038151811061433257fe5b6020026020010151905061437482600a6000846001600160a01b03166001600160a01b031681526020019081526020016000205461355490919063ffffffff16565b6001600160a01b039091166000908152600a602052604090205550915061439d9050565b859150505b9695505050505050565b6003546001600160a01b031660008361443857816001600160a01b03166381a612d6876040518263ffffffff1660e01b815260040180826001600160a01b0316815260200191505060206040518083038186803b15801561440757600080fd5b505afa15801561441b573d6000803e3d6000fd5b505050506040513d602081101561443157600080fd5b50516144b2565b816001600160a01b031663e124e6d2876040518263ffffffff1660e01b815260040180826001600160a01b0316815260200191505060206040518083038186803b15801561448557600080fd5b505afa158015614499573d6000803e3d6000fd5b505050506040513d60208110156144af57600080fd5b50515b905083156144fe57828111156144f95760405162461bcd60e51b815260040180806020018281038252603181526020018061596a6031913960400191505060405180910390fd5b61453d565b8281101561453d5760405162461bcd60e51b81526004018080602001828103825260308152602001806158ca6030913960400191505060405180910390fd5b6145488685876150ef565b6000826001600160a01b03166312d43a516040518163ffffffff1660e01b815260040160206040518083038186803b15801561458357600080fd5b505afa158015614597573d6000803e3d6000fd5b505050506040513d60208110156145ad57600080fd5b50516004805460408051633cc8e33b60e21b81526001600160a01b038e8116948201949094528c841660248201528b841660448201528915156064820152608481018b905260a48101879052600160c4820152905193945091169163f3238cec9160e48082019260009290919082900301818387803b15801561462f57600080fd5b505af1158015614643573d6000803e3d6000fd5b50505050806001600160a01b0316636d63c1d0846040518263ffffffff1660e01b815260040180826001600160a01b03168152602001915050600060405180830381600087803b15801561469657600080fd5b505af11580156146aa573d6000803e3d6000fd5b505060055460408051630f8ee8bb60e11b81526001600160a01b038e811660048301528d811660248301528c81166044830152606482018c90528a151560848301529151919092169350631f1dd176925060a480830192600092919082900301818387803b15801561471b57600080fd5b505af115801561472f573d6000803e3d6000fd5b50505050806001600160a01b031663d3c87bbb846040518263ffffffff1660e01b815260040180826001600160a01b03168152602001915050600060405180830381600087803b15801561478257600080fd5b505af1158015614796573d6000803e3d6000fd5b505050506147a489876152a1565b505050505050505050565b6003546000906001600160a01b0316818561484257816001600160a01b031663e124e6d28a6040518263ffffffff1660e01b815260040180826001600160a01b0316815260200191505060206040518083038186803b15801561481157600080fd5b505afa158015614825573d6000803e3d6000fd5b505050506040513d602081101561483b57600080fd5b50516148bc565b816001600160a01b03166381a612d68a6040518263ffffffff1660e01b815260040180826001600160a01b0316815260200191505060206040518083038186803b15801561488f57600080fd5b505afa1580156148a3573d6000803e3d6000fd5b505050506040513d60208110156148b957600080fd5b50515b9050851561490857838110156149035760405162461bcd60e51b81526004018080602001828103825260308152602001806158ca6030913960400191505060405180910390fd5b614947565b838111156149475760405162461bcd60e51b815260040180806020018281038252603181526020018061596a6031913960400191505060405180910390fd5b6000826001600160a01b03166312d43a516040518163ffffffff1660e01b815260040160206040518083038186803b15801561498257600080fd5b505afa158015614996573d6000803e3d6000fd5b505050506040513d60208110156149ac57600080fd5b81019080805190602001909291905050509050600460009054906101000a90046001600160a01b03166001600160a01b031663f3238cec8d8d8d8b8d8860006040518863ffffffff1660e01b815260040180886001600160a01b03168152602001876001600160a01b03168152602001866001600160a01b0316815260200185151581526020018481526020018381526020018215158152602001975050505050505050600060405180830381600087803b158015614a6a57600080fd5b505af1158015614a7e573d6000803e3d6000fd5b50505050806001600160a01b0316636d63c1d0846040518263ffffffff1660e01b815260040180826001600160a01b03168152602001915050600060405180830381600087803b158015614ad157600080fd5b505af1158015614ae5573d6000803e3d6000fd5b505050506000600560009054906101000a90046001600160a01b03166001600160a01b0316632662166b8e8e8e8e8e8e8e6040518863ffffffff1660e01b815260040180886001600160a01b03168152602001876001600160a01b03168152602001866001600160a01b031681526020018581526020018481526020018315158152602001826001600160a01b03168152602001975050505050505050602060405180830381600087803b158015614b9c57600080fd5b505af1158015614bb0573d6000803e3d6000fd5b505050506040513d6020811015614bc657600080fd5b50516040805163d3c87bbb60e01b81526001600160a01b03878116600483015291519293509084169163d3c87bbb9160248082019260009290919082900301818387803b158015614c1657600080fd5b505af1158015614c2a573d6000803e3d6000fd5b50505050614c388d8a615414565b9c9b505050505050505050505050565b606082471015614c895760405162461bcd60e51b81526004018080602001828103825260268152602001806158a46026913960400191505060405180910390fd5b614c92856136f4565b614ce3576040805162461bcd60e51b815260206004820152601d60248201527f416464726573733a2063616c6c20746f206e6f6e2d636f6e7472616374000000604482015290519081900360640190fd5b60006060866001600160a01b031685876040518082805190602001908083835b60208310614d225780518252601f199092019160209182019101614d03565b6001836020036101000a03801982511681845116808217855250505050505090500191505060006040518083038185875af1925050503d8060008114614d84576040519150601f19603f3d011682016040523d82523d6000602084013e614d89565b606091505b5091509150614d99828286615530565b979650505050505050565b60035460408051634998b10960e11b81526001600160a01b03878116600483015286811660248301528481166044830152915160009384931691639331621291606480830192602092919082900301818787803b158015614e0457600080fd5b505af1158015614e18573d6000803e3d6000fd5b505050506040513d6020811015614e2e57600080fd5b5051905083811015614e715760405162461bcd60e51b815260040180806020018281038252602b81526020018061583f602b913960400191505060405180910390fd5b95945050505050565b600082614e895750600061439d565b81614e965750600161439d565b600086600188510381518110614ea857fe5b602090810291909101015160035460408051634a3f088d60e01b81526001600160a01b038c81166004830152808516602483015289811660448301528815156064830152915193945091169160009182918491634a3f088d91608480830192610100929190829003018186803b158015614f2157600080fd5b505afa158015614f35573d6000803e3d6000fd5b505050506040513d610100811015614f4c57600080fd5b508051602090910151909250905081614f6c57600094505050505061439d565b6000614f788388613554565b90506000846001600160a01b0316630a48d5a9878d6040518363ffffffff1660e01b815260040180836001600160a01b031681526020018281526020019250505060206040518083038186803b158015614fd157600080fd5b505afa158015614fe5573d6000803e3d6000fd5b505050506040513d6020811015614ffb57600080fd5b50519050600061500b8483613554565b9050600061501f8561430a88612710615057565b905060006150408361430a600854612710018861505790919063ffffffff16565b919091109f9e505050505050505050505050505050565b60008261506657506000611f06565b8282028284828161507357fe5b0414612d0c5760405162461bcd60e51b81526004018080602001828103825260218152602001806159496021913960400191505060405180910390fd5b6000612d0c83836040518060400160405280601a815260200179536166654d6174683a206469766973696f6e206279207a65726f60301b815250615596565b806150f957612df3565b81156151ec576001600160a01b0383166000908152600b602052604090205480158015906151aa57506003546040805163783a2b6760e11b81526001600160a01b038781166004830152915184936151a893879391169163f07456ce91602480820192602092909190829003018186803b15801561517657600080fd5b505afa15801561518a573d6000803e3d6000fd5b505050506040513d60208110156151a057600080fd5b505190613554565b115b156151e65760405162461bcd60e51b815260040180806020018281038252602e8152602001806157d1602e913960400191505060405180910390fd5b50612df3565b6001600160a01b0383166000908152600c6020526040902054801580159061526557506003546040805163114f1b5560e31b81526001600160a01b03878116600483015291518493615263938793911691638a78daa891602480820192602092909190829003018186803b15801561517657600080fd5b115b15612f3a5760405162461bcd60e51b815260040180806020018281038252602f81526020018061591a602f913960400191505060405180910390fd5b6009546001600160a01b0316806152b8575061157a565b600080826001600160a01b031663534ef883866040518263ffffffff1660e01b815260040180826001600160a01b03168152602001915050604080518083038186803b15801561530757600080fd5b505afa15801561531b573d6000803e3d6000fd5b505050506040513d604081101561533157600080fd5b5080516020918201516003546040805163318bc68960e01b815290519396509194507fc2414023ce7002ee98557d1e7be21e5559073336f2217ee5f9b2e50fd85f71ee93899389936001600160a01b039093169263318bc689926004808301939192829003018186803b1580156153a757600080fd5b505afa1580156153bb573d6000803e3d6000fd5b505050506040513d60208110156153d157600080fd5b5051604080516001600160a01b03948516815260208101939093528281019190915260608201869052918416608082015290519081900360a00190a15050505050565b6009546001600160a01b03168061542b575061157a565b600080826001600160a01b031663534ef883866040518263ffffffff1660e01b815260040180826001600160a01b03168152602001915050604080518083038186803b15801561547a57600080fd5b505afa15801561548e573d6000803e3d6000fd5b505050506040513d60408110156154a457600080fd5b5080516020909101519092509050816154bf5750505061157a565b7f474c763ff84bf2c2039a6d9fea955ecd0f724030e3c365b91169c6a16fe751b78585600360009054906101000a90046001600160a01b03166001600160a01b031663318bc6896040518163ffffffff1660e01b815260040160206040518083038186803b1580156153a757600080fd5b6060831561553f575081612d0c565b82511561554f5782518084602001fd5b60405162461bcd60e51b81526020600482018181528451602484015284518593919283926044019190850190808383600083156136b1578181015183820152602001613699565b600081836155e55760405162461bcd60e51b81526020600482018181528351602484015283519092839260449091019190850190808383600083156136b1578181015183820152602001613699565b5060008385816155f157fe5b0495945050505050565b604051806101a0016040528060006001600160a01b031681526020016060815260200160006001600160a01b031681526020016000815260200160008152602001600081526020016000151581526020016000815260200160008152602001600081526020016000815260200160001515815260200160006001600160a01b031681525090565b5080546000825590600052602060002090810190613102919061579c565b604051806101c0016040528060006001600160a01b031681526020016060815260200160006001600160a01b03168152602001600081526020016000815260200160001515815260200160006001600160a01b03168152602001600081526020016000815260200160008152602001600081526020016000815260200160001515815260200160006001600160a01b031681525090565b82805482825590600052602060002090810192821561578c579160200282015b8281111561578c57825182546001600160a01b0319166001600160a01b03909116178255602090920191600190910190615757565b506157989291506157b1565b5090565b5b80821115615798576000815560010161579d565b5b808211156157985780546001600160a01b03191681556001016157b256fe42617365506f736974696f6e4d616e616765723a206d617820676c6f62616c206c6f6e67732065786365656465645265656e7472616e637947756172643a207265656e7472616e742063616c6c00476f7665726e61626c653a20666f7262696464656e000000000000000000000042617365506f736974696f6e4d616e616765723a20696e73756666696369656e7420616d6f756e744f7574416464726573733a20756e61626c6520746f2073656e642076616c75652c20726563697069656e74206d61792068617665207265766572746564416464726573733a20696e73756666696369656e742062616c616e636520666f722063616c6c42617365506f736974696f6e4d616e616765723a206d61726b207072696365206c6f776572207468616e206c696d697442617365506f736974696f6e4d616e616765723a20666f7262696464656e000042617365506f736974696f6e4d616e616765723a206d617820676c6f62616c2073686f727473206578636565646564536166654d6174683a206d756c7469706c69636174696f6e206f766572666c6f7742617365506f736974696f6e4d616e616765723a206d61726b20707269636520686967686572207468616e206c696d697442617365506f736974696f6e4d616e616765723a20696e76616c6964205f706174682e6c656e67746842617365506f736974696f6e4d616e616765723a20696e76616c69642073656e6465725361666545524332303a204552433230206f7065726174696f6e20646964206e6f742073756363656564a26469706673582212202f44baaa80f038cd144b13510ee5c81c001a77d0718dbb54708aade09be22bba64736f6c634300060c0033",
  "linkReferences": {},
  "deployedLinkReferences": {}
}