{
  "_format": "hh-sol-artifact-1",
  "contractName": "RewardRouter",
  "sourceName": "contracts/staking/RewardRouter.sol",
  "abi": [
    {
      "anonymous": false,
      "inputs": [
        {
          "indexed": false,
          "internalType": "address",
          "name": "account",
          "type": "address"
        },
        {
          "indexed": false,
          "internalType": "uint256",
          "name": "amount",
          "type": "uint256"
        }
      ],
      "name": "StakeZlp",
      "type": "event"
    },
    {
      "anonymous": false,
      "inputs": [
        {
          "indexed": false,
          "internalType": "address",
          "name": "account",
          "type": "address"
        },
        {
          "indexed": false,
          "internalType": "uint256",
          "name": "amount",
          "type": "uint256"
        }
      ],
      "name": "StakeGMX",
      "type": "event"
    },
    {
      "anonymous": false,
      "inputs": [
        {
          "indexed": false,
          "internalType": "address",
          "name": "account",
          "type": "address"
        },
        {
          "indexed": false,
          "internalType": "uint256",
          "name": "amount",
          "type": "uint256"
        }
      ],
      "name": "UnstakeZlp",
      "type": "event"
    },
    {
      "anonymous": false,
      "inputs": [
        {
          "indexed": false,
          "internalType": "address",
          "name": "account",
          "type": "address"
        },
        {
          "indexed": false,
          "internalType": "uint256",
          "name": "amount",
          "type": "uint256"
        }
      ],
      "name": "UnstakeGMX",
      "type": "event"
    },
    {
      "inputs": [
        {
          "internalType": "address[]",
          "name": "_accounts",
          "type": "address[]"
        }
      ],
      "name": "batchCompoundForAccounts",
      "outputs": [],
      "stateMutability": "nonpayable",
      "type": "function"
    },
    {
      "inputs": [
        {
          "internalType": "address[]",
          "name": "_accounts",
          "type": "address[]"
        },
        {
          "internalType": "uint256[]",
          "name": "_amounts",
          "type": "uint256[]"
        }
      ],
      "name": "batchStakeGMXForAccount",
      "outputs": [],
      "stateMutability": "nonpayable",
      "type": "function"
    },
    {
      "inputs": [],
      "name": "bnGMX",
      "outputs": [
        {
          "internalType": "address",
          "name": "",
          "type": "address"
        }
      ],
      "stateMutability": "view",
      "type": "function"
    },
    {
      "inputs": [],
      "name": "bonusGMXTracker",
      "outputs": [
        {
          "internalType": "address",
          "name": "",
          "type": "address"
        }
      ],
      "stateMutability": "view",
      "type": "function"
    },
    {
      "inputs": [],
      "name": "claim",
      "outputs": [],
      "stateMutability": "nonpayable",
      "type": "function"
    },
    {
      "inputs": [],
      "name": "claimEsGMX",
      "outputs": [],
      "stateMutability": "nonpayable",
      "type": "function"
    },
    {
      "inputs": [],
      "name": "claimFees",
      "outputs": [],
      "stateMutability": "nonpayable",
      "type": "function"
    },
    {
      "inputs": [],
      "name": "compound",
      "outputs": [],
      "stateMutability": "nonpayable",
      "type": "function"
    },
    {
      "inputs": [
        {
          "internalType": "address",
          "name": "_account",
          "type": "address"
        }
      ],
      "name": "compoundForAccount",
      "outputs": [],
      "stateMutability": "nonpayable",
      "type": "function"
    },
    {
      "inputs": [],
      "name": "esGMX",
      "outputs": [
        {
          "internalType": "address",
          "name": "",
          "type": "address"
        }
      ],
      "stateMutability": "view",
      "type": "function"
    },
    {
      "inputs": [],
      "name": "feeZlpTracker",
      "outputs": [
        {
          "internalType": "address",
          "name": "",
          "type": "address"
        }
      ],
      "stateMutability": "view",
      "type": "function"
    },
    {
      "inputs": [],
      "name": "feeGMXTracker",
      "outputs": [
        {
          "internalType": "address",
          "name": "",
          "type": "address"
        }
      ],
      "stateMutability": "view",
      "type": "function"
    },
    {
      "inputs": [],
      "name": "gov",
      "outputs": [
        {
          "internalType": "address",
          "name": "",
          "type": "address"
        }
      ],
      "stateMutability": "view",
      "type": "function"
    },
    {
      "inputs": [
        {
          "internalType": "address",
          "name": "_weth",
          "type": "address"
        },
        {
          "internalType": "address",
          "name": "_gmx",
          "type": "address"
        },
        {
          "internalType": "address",
          "name": "_esGMX",
          "type": "address"
        },
        {
          "internalType": "address",
          "name": "_bnGMX",
          "type": "address"
        },
        {
          "internalType": "address",
          "name": "_zlp",
          "type": "address"
        },
        {
          "internalType": "address",
          "name": "_stakedGMXTracker",
          "type": "address"
        },
        {
          "internalType": "address",
          "name": "_bonusGMXTracker",
          "type": "address"
        },
        {
          "internalType": "address",
          "name": "_feeGMXTracker",
          "type": "address"
        },
        {
          "internalType": "address",
          "name": "_feeZlpTracker",
          "type": "address"
        },
        {
          "internalType": "address",
          "name": "_stakedZlpTracker",
          "type": "address"
        },
        {
          "internalType": "address",
          "name": "_zlpManager",
          "type": "address"
        }
      ],
      "name": "initialize",
      "outputs": [],
      "stateMutability": "nonpayable",
      "type": "function"
    },
    {
      "inputs": [],
      "name": "isInitialized",
      "outputs": [
        {
          "internalType": "bool",
          "name": "",
          "type": "bool"
        }
      ],
      "stateMutability": "view",
      "type": "function"
    },
    {
      "inputs": [
        {
          "internalType": "address",
          "name": "_token",
          "type": "address"
        },
        {
          "internalType": "uint256",
          "name": "_amount",
          "type": "uint256"
        },
        {
          "internalType": "uint256",
          "name": "_minUsdg",
          "type": "uint256"
        },
        {
          "internalType": "uint256",
          "name": "_minZlp",
          "type": "uint256"
        }
      ],
      "name": "mintAndStakeZlp",
      "outputs": [
        {
          "internalType": "uint256",
          "name": "",
          "type": "uint256"
        }
      ],
      "stateMutability": "nonpayable",
      "type": "function"
    },
    {
      "inputs": [
        {
          "internalType": "uint256",
          "name": "_minUsdg",
          "type": "uint256"
        },
        {
          "internalType": "uint256",
          "name": "_minZlp",
          "type": "uint256"
        }
      ],
      "name": "mintAndStakeZlpETH",
      "outputs": [
        {
          "internalType": "uint256",
          "name": "",
          "type": "uint256"
        }
      ],
      "stateMutability": "payable",
      "type": "function"
    },
    {
      "inputs": [
        {
          "internalType": "address",
          "name": "_gov",
          "type": "address"
        }
      ],
      "name": "setGov",
      "outputs": [],
      "stateMutability": "nonpayable",
      "type": "function"
    },
    {
      "inputs": [
        {
          "internalType": "uint256",
          "name": "_amount",
          "type": "uint256"
        }
      ],
      "name": "stakeEsGMX",
      "outputs": [],
      "stateMutability": "nonpayable",
      "type": "function"
    },
    {
      "inputs": [
        {
          "internalType": "uint256",
          "name": "_amount",
          "type": "uint256"
        }
      ],
      "name": "stakeGMX",
      "outputs": [],
      "stateMutability": "nonpayable",
      "type": "function"
    },
    {
      "inputs": [
        {
          "internalType": "address",
          "name": "_account",
          "type": "address"
        },
        {
          "internalType": "uint256",
          "name": "_amount",
          "type": "uint256"
        }
      ],
      "name": "stakeGMXForAccount",
      "outputs": [],
      "stateMutability": "nonpayable",
      "type": "function"
    },
    {
      "inputs": [],
      "name": "stakedZlpTracker",
      "outputs": [
        {
          "internalType": "address",
          "name": "",
          "type": "address"
        }
      ],
      "stateMutability": "view",
      "type": "function"
    },
    {
      "inputs": [],
      "name": "stakedGMXTracker",
      "outputs": [
        {
          "internalType": "address",
          "name": "",
          "type": "address"
        }
      ],
      "stateMutability": "view",
      "type": "function"
    },
    {
      "inputs": [
        {
          "internalType": "address",
          "name": "_tokenOut",
          "type": "address"
        },
        {
          "internalType": "uint256",
          "name": "_zlpAmount",
          "type": "uint256"
        },
        {
          "internalType": "uint256",
          "name": "_minOut",
          "type": "uint256"
        },
        {
          "internalType": "address",
          "name": "_receiver",
          "type": "address"
        }
      ],
      "name": "unstakeAndRedeemZlp",
      "outputs": [
        {
          "internalType": "uint256",
          "name": "",
          "type": "uint256"
        }
      ],
      "stateMutability": "nonpayable",
      "type": "function"
    },
    {
      "inputs": [
        {
          "internalType": "uint256",
          "name": "_zlpAmount",
          "type": "uint256"
        },
        {
          "internalType": "uint256",
          "name": "_minOut",
          "type": "uint256"
        },
        {
          "internalType": "address payable",
          "name": "_receiver",
          "type": "address"
        }
      ],
      "name": "unstakeAndRedeemZlpETH",
      "outputs": [
        {
          "internalType": "uint256",
          "name": "",
          "type": "uint256"
        }
      ],
      "stateMutability": "nonpayable",
      "type": "function"
    },
    {
      "inputs": [
        {
          "internalType": "uint256",
          "name": "_amount",
          "type": "uint256"
        }
      ],
      "name": "unstakeEsGMX",
      "outputs": [],
      "stateMutability": "nonpayable",
      "type": "function"
    },
    {
      "inputs": [
        {
          "internalType": "uint256",
          "name": "_amount",
          "type": "uint256"
        }
      ],
      "name": "unstakeGMX",
      "outputs": [],
      "stateMutability": "nonpayable",
      "type": "function"
    },
    {
      "inputs": [],
      "name": "weth",
      "outputs": [
        {
          "internalType": "address",
          "name": "",
          "type": "address"
        }
      ],
      "stateMutability": "view",
      "type": "function"
    },
    {
      "inputs": [
        {
          "internalType": "address",
          "name": "_token",
          "type": "address"
        },
        {
          "internalType": "address",
          "name": "_account",
          "type": "address"
        },
        {
          "internalType": "uint256",
          "name": "_amount",
          "type": "uint256"
        }
      ],
      "name": "withdrawToken",
      "outputs": [],
      "stateMutability": "nonpayable",
      "type": "function"
    },
    {
      "inputs": [],
      "name": "zlp",
      "outputs": [
        {
          "internalType": "address",
          "name": "",
          "type": "address"
        }
      ],
      "stateMutability": "view",
      "type": "function"
    },
    {
      "inputs": [],
      "name": "zlpManager",
      "outputs": [
        {
          "internalType": "address",
          "name": "",
          "type": "address"
        }
      ],
      "stateMutability": "view",
      "type": "function"
    },
    {
      "inputs": [],
      "name": "gmx",
      "outputs": [
        {
          "internalType": "address",
          "name": "",
          "type": "address"
        }
      ],
      "stateMutability": "view",
      "type": "function"
    },
    {
      "stateMutability": "payable",
      "type": "receive"
    }
  ],
  "bytecode": "0x608060405234801561001057600080fd5b506001600081905580546001600160a01b0319163317905561304c806100376000396000f3fe6080604052600436106101775760003560e01c806301e33667146101db57806312d43a511461021e57806317988a6a1461024f5780631a6a1372146102645780631af276a61461029d5780632a9f40831461034b578063386dd6a91461037e578063392e53cd146103935780633fc8cef3146103bc57806345a88c5f146103d15780634e71d92d146103fb57806358fc11f6146104105780635ac4f1c31461043a5780636babcfa71461056a57806376902b831461057f57806384347a33146106085780639540327b1461061d5780639fc9926014610632578063aa5fc20714610647578063b12dae251461065c578063b655659914610671578063b769981614610686578063c8cfba39146106d7578063c9080f061461071c578063cca30c3114610746578063cfad57a21461078d578063d294f093146107c0578063d6bf66c2146107d5578063f4a1610a146107f8578063f69e204614610822578063fad5999614610837578063fe9fe7201461084c576101d6565b366101d6576002546001600160a01b031633146101d4576040805162461bcd60e51b81526020600482015260166024820152752937baba32b91d1034b73b30b634b21039b2b73232b960511b604482015290519081900360640190fd5b005b600080fd5b3480156101e757600080fd5b506101d4600480360360608110156101fe57600080fd5b506001600160a01b03813581169160208101359091169060400135610861565b34801561022a57600080fd5b506102336108c7565b604080516001600160a01b039092168252519081900360200190f35b34801561025b57600080fd5b506102336108d6565b34801561027057600080fd5b506101d46004803603604081101561028757600080fd5b506001600160a01b0381351690602001356108e5565b3480156102a957600080fd5b506101d4600480360360208110156102c057600080fd5b810190602081018135600160201b8111156102da57600080fd5b8201836020820111156102ec57600080fd5b803590602001918460208302840111600160201b8311171561030d57600080fd5b9190808060200260200160405190810160405280939291908181526020018383602002808284376000920191909152509295506109a0945050505050565b34801561035757600080fd5b506101d46004803603602081101561036e57600080fd5b50356001600160a01b0316610a68565b34801561038a57600080fd5b50610233610b11565b34801561039f57600080fd5b506103a8610b20565b604080519115158252519081900360200190f35b3480156103c857600080fd5b50610233610b30565b3480156103dd57600080fd5b506101d4600480360360208110156103f457600080fd5b5035610b3f565b34801561040757600080fd5b506101d4610ba4565b34801561041c57600080fd5b506101d46004803603602081101561043357600080fd5b5035610e03565b34801561044657600080fd5b506101d46004803603604081101561045d57600080fd5b810190602081018135600160201b81111561047757600080fd5b82018360208201111561048957600080fd5b803590602001918460208302840111600160201b831117156104aa57600080fd5b9190808060200260200160405190810160405280939291908181526020018383602002808284376000920191909152509295949360208101935035915050600160201b8111156104f957600080fd5b82018360208201111561050b57600080fd5b803590602001918460208302840111600160201b8311171561052c57600080fd5b919080806020026020016040519081016040528093929190818152602001838360200280828437600092019190915250929550610e66945050505050565b34801561057657600080fd5b50610233610f5b565b34801561058b57600080fd5b506101d460048036036101608110156105a357600080fd5b506001600160a01b038135811691602081013582169160408201358116916060810135821691608082013581169160a081013582169160c082013581169160e08101358216916101008201358116916101208101358216916101409091013516610f6a565b34801561061457600080fd5b506102336110d1565b34801561062957600080fd5b506101d46110e0565b34801561063e57600080fd5b50610233611185565b34801561065357600080fd5b50610233611194565b34801561066857600080fd5b506102336111a3565b34801561067d57600080fd5b506102336111b2565b34801561069257600080fd5b506106c5600480360360608110156106a957600080fd5b50803590602081013590604001356001600160a01b03166111c1565b60408051918252519081900360200190f35b3480156106e357600080fd5b506106c5600480360360808110156106fa57600080fd5b506001600160a01b0381351690602081013590604081013590606001356114aa565b34801561072857600080fd5b506101d46004803603602081101561073f57600080fd5b5035611718565b34801561075257600080fd5b506106c56004803603608081101561076957600080fd5b506001600160a01b038135811691602081013591604082013591606001351661177d565b34801561079957600080fd5b506101d4600480360360208110156107b057600080fd5b50356001600160a01b03166119ed565b3480156107cc57600080fd5b506101d4611a5c565b6106c5600480360360408110156107eb57600080fd5b5080359060200135611b83565b34801561080457600080fd5b506101d46004803603602081101561081b57600080fd5b5035611eee565b34801561082e57600080fd5b506101d4611f51565b34801561084357600080fd5b50610233611fac565b34801561085857600080fd5b50610233611fbb565b6001546001600160a01b031633146108ae576040805162461bcd60e51b81526020600482015260156024820152600080516020612eeb833981519152604482015290519081900360640190fd5b6108c26001600160a01b0384168383611fca565b505050565b6001546001600160a01b031681565b600a546001600160a01b031681565b6002600054141561092b576040805162461bcd60e51b815260206004820152601f6024820152600080516020612e8b833981519152604482015290519081900360640190fd5b60026000556001546001600160a01b0316331461097d576040805162461bcd60e51b81526020600482015260156024820152600080516020612eeb833981519152604482015290519081900360640190fd5b60035461099790339084906001600160a01b03168461201c565b50506001600055565b600260005414156109e6576040805162461bcd60e51b815260206004820152601f6024820152600080516020612e8b833981519152604482015290519081900360640190fd5b60026000556001546001600160a01b03163314610a38576040805162461bcd60e51b81526020600482015260156024820152600080516020612eeb833981519152604482015290519081900360640190fd5b60005b815181101561099757610a60828281518110610a5357fe5b6020026020010151612224565b600101610a3b565b60026000541415610aae576040805162461bcd60e51b815260206004820152601f6024820152600080516020612e8b833981519152604482015290519081900360640190fd5b60026000556001546001600160a01b03163314610b00576040805162461bcd60e51b81526020600482015260156024820152600080516020612eeb833981519152604482015290519081900360640190fd5b610b0981612224565b506001600055565b6007546001600160a01b031681565b600154600160a01b900460ff1681565b6002546001600160a01b031681565b60026000541415610b85576040805162461bcd60e51b815260206004820152601f6024820152600080516020612e8b833981519152604482015290519081900360640190fd5b6002600055600454610b0990339081906001600160a01b03168461201c565b60026000541415610bea576040805162461bcd60e51b815260206004820152601f6024820152600080516020612e8b833981519152604482015290519081900360640190fd5b60026000908155600954604080516309f4173d60e11b8152336004820181905260248201819052915191936001600160a01b03909316926313e82e7a926044808401936020939083900390910190829087803b158015610c4957600080fd5b505af1158015610c5d573d6000803e3d6000fd5b505050506040513d6020811015610c7357600080fd5b5050600b54604080516309f4173d60e11b81526001600160a01b03848116600483018190526024830152915191909216916313e82e7a9160448083019260209291908290030181600087803b158015610ccb57600080fd5b505af1158015610cdf573d6000803e3d6000fd5b505050506040513d6020811015610cf557600080fd5b5050600754604080516309f4173d60e11b81526001600160a01b03848116600483018190526024830152915191909216916313e82e7a9160448083019260209291908290030181600087803b158015610d4d57600080fd5b505af1158015610d61573d6000803e3d6000fd5b505050506040513d6020811015610d7757600080fd5b5050600a54604080516309f4173d60e11b81526001600160a01b03848116600483018190526024830152915191909216916313e82e7a9160448083019260209291908290030181600087803b158015610dcf57600080fd5b505af1158015610de3573d6000803e3d6000fd5b505050506040513d6020811015610df957600080fd5b5050600160005550565b60026000541415610e49576040805162461bcd60e51b815260206004820152601f6024820152600080516020612e8b833981519152604482015290519081900360640190fd5b6002600055600454610b099033906001600160a01b031683612239565b60026000541415610eac576040805162461bcd60e51b815260206004820152601f6024820152600080516020612e8b833981519152604482015290519081900360640190fd5b60026000556001546001600160a01b03163314610efe576040805162461bcd60e51b81526020600482015260156024820152600080516020612eeb833981519152604482015290519081900360640190fd5b6003546001600160a01b031660005b8351811015610f5057610f4833858381518110610f2657fe5b602002602001015184868581518110610f3b57fe5b602002602001015161201c565b600101610f0d565b505060016000555050565b6004546001600160a01b031681565b6001546001600160a01b03163314610fb7576040805162461bcd60e51b81526020600482015260156024820152600080516020612eeb833981519152604482015290519081900360640190fd5b600154600160a01b900460ff16156110005760405162461bcd60e51b8152600401808060200182810382526021815260200180612f456021913960400191505060405180910390fd5b60018054600160a01b60ff60a01b19909116179055600280546001600160a01b03199081166001600160a01b039d8e16179091556003805482169b8d169b909b17909a55600480548b16998c1699909917909855600580548a16978b1697909717909655600680548916958a169590951790945560078054881693891693909317909255600880548716918816919091179055600980548616918716919091179055600b80548516918616919091179055600a80548416918516919091179055600c80549092169216919091179055565b600b546001600160a01b031681565b60026000541415611126576040805162461bcd60e51b815260206004820152601f6024820152600080516020612e8b833981519152604482015290519081900360640190fd5b60026000908155600754604080516309f4173d60e11b8152336004820181905260248201819052915191936001600160a01b03909316926313e82e7a926044808401936020939083900390910190829087803b158015610d4d57600080fd5b6003546001600160a01b031681565b6005546001600160a01b031681565b6008546001600160a01b031681565b600c546001600160a01b031681565b600060026000541415611209576040805162461bcd60e51b815260206004820152601f6024820152600080516020612e8b833981519152604482015290519081900360640190fd5b60026000558361124e576040805162461bcd60e51b81526020600482018190526024820152600080516020612ecb833981519152604482015290519081900360640190fd5b600a54600b546040805163098bf59d60e01b815233600482018190526001600160a01b039384166024830152604482018990526064820181905291519193929092169163098bf59d91608480830192600092919082900301818387803b1580156112b757600080fd5b505af11580156112cb573d6000803e3d6000fd5b5050600b546006546040805163098bf59d60e01b81526001600160a01b03878116600483018190529381166024830152604482018c90526064820193909352905191909216935063098bf59d9250608480830192600092919082900301818387803b15801561133957600080fd5b505af115801561134d573d6000803e3d6000fd5b5050600c54600254604080516371d597ad60e01b81526001600160a01b0387811660048301529283166024820152604481018b9052606481018a90523060848201529051600095509190921692506371d597ad9160a48082019260209290919082900301818787803b1580156113c257600080fd5b505af11580156113d6573d6000803e3d6000fd5b505050506040513d60208110156113ec57600080fd5b505160025460408051632e1a7d4d60e01b81526004810184905290519293506001600160a01b0390911691632e1a7d4d9160248082019260009290919082900301818387803b15801561143e57600080fd5b505af1158015611452573d6000803e3d6000fd5b5061146a925050506001600160a01b0385168261276d565b604080516001600160a01b0384168152602081018890528151600080516020612fd7833981519152929181900390910190a1600160005595945050505050565b6000600260005414156114f2576040805162461bcd60e51b815260206004820152601f6024820152600080516020612e8b833981519152604482015290519081900360640190fd5b600260005583611537576040805162461bcd60e51b815260206004820152601d6024820152600080516020612ff7833981519152604482015290519081900360640190fd5b600c54604080516317eb2a1560e01b81523360048201819052602482018190526001600160a01b038981166044840152606483018990526084830188905260a483018790529251909360009316916317eb2a159160c480830192602092919082900301818787803b1580156115ab57600080fd5b505af11580156115bf573d6000803e3d6000fd5b505050506040513d60208110156115d557600080fd5b5051600b5460065460408051631e42d69b60e21b81526001600160a01b03878116600483018190526024830152928316604482015260648101859052905193945091169163790b5a6c9160848082019260009290919082900301818387803b15801561164057600080fd5b505af1158015611654573d6000803e3d6000fd5b5050600a54600b5460408051631e42d69b60e21b81526001600160a01b03888116600483018190526024830152928316604482015260648101879052905191909216935063790b5a6c9250608480830192600092919082900301818387803b1580156116bf57600080fd5b505af11580156116d3573d6000803e3d6000fd5b5050604080516001600160a01b0386168152602081018590528151600080516020612eab8339815191529450908190039091019150a160016000559695505050505050565b6002600054141561175e576040805162461bcd60e51b815260206004820152601f6024820152600080516020612e8b833981519152604482015290519081900360640190fd5b6002600055600354610b0990339081906001600160a01b03168461201c565b6000600260005414156117c5576040805162461bcd60e51b815260206004820152601f6024820152600080516020612e8b833981519152604482015290519081900360640190fd5b60026000558361180a576040805162461bcd60e51b81526020600482018190526024820152600080516020612ecb833981519152604482015290519081900360640190fd5b600a54600b546040805163098bf59d60e01b815233600482018190526001600160a01b039384166024830152604482018990526064820181905291519193929092169163098bf59d91608480830192600092919082900301818387803b15801561187357600080fd5b505af1158015611887573d6000803e3d6000fd5b5050600b546006546040805163098bf59d60e01b81526001600160a01b03878116600483018190529381166024830152604482018c90526064820193909352905191909216935063098bf59d9250608480830192600092919082900301818387803b1580156118f557600080fd5b505af1158015611909573d6000803e3d6000fd5b5050600c54604080516371d597ad60e01b81526001600160a01b0386811660048301528b81166024830152604482018b9052606482018a905288811660848301529151600095509190921692506371d597ad9160a48082019260209290919082900301818787803b15801561197d57600080fd5b505af1158015611991573d6000803e3d6000fd5b505050506040513d60208110156119a757600080fd5b5051604080516001600160a01b0385168152602081018990528151929350600080516020612fd7833981519152929081900390910190a160016000559695505050505050565b6001546001600160a01b03163314611a3a576040805162461bcd60e51b81526020600482015260156024820152600080516020612eeb833981519152604482015290519081900360640190fd5b600180546001600160a01b0319166001600160a01b0392909216919091179055565b60026000541415611aa2576040805162461bcd60e51b815260206004820152601f6024820152600080516020612e8b833981519152604482015290519081900360640190fd5b60026000908155600954604080516309f4173d60e11b8152336004820181905260248201819052915191936001600160a01b03909316926313e82e7a926044808401936020939083900390910190829087803b158015611b0157600080fd5b505af1158015611b15573d6000803e3d6000fd5b505050506040513d6020811015611b2b57600080fd5b5050600b54604080516309f4173d60e11b81526001600160a01b03848116600483018190526024830152915191909216916313e82e7a9160448083019260209291908290030181600087803b158015610dcf57600080fd5b600060026000541415611bcb576040805162461bcd60e51b815260206004820152601f6024820152600080516020612e8b833981519152604482015290519081900360640190fd5b600260005534611c22576040805162461bcd60e51b815260206004820152601f60248201527f526577617264526f757465723a20696e76616c6964206d73672e76616c756500604482015290519081900360640190fd5b600260009054906101000a90046001600160a01b03166001600160a01b031663d0e30db0346040518263ffffffff1660e01b81526004016000604051808303818588803b158015611c7257600080fd5b505af1158015611c86573d6000803e3d6000fd5b5050600254600c546040805163095ea7b360e01b81526001600160a01b039283166004820152346024820152905191909216945063095ea7b39350604480830193506020928290030181600087803b158015611ce157600080fd5b505af1158015611cf5573d6000803e3d6000fd5b505050506040513d6020811015611d0b57600080fd5b5050600c54600254604080516317eb2a1560e01b815230600482015233602482018190526001600160a01b0393841660448301523460648301526084820188905260a482018790529151919360009316916317eb2a159160c48082019260209290919082900301818787803b158015611d8357600080fd5b505af1158015611d97573d6000803e3d6000fd5b505050506040513d6020811015611dad57600080fd5b5051600b5460065460408051631e42d69b60e21b81526001600160a01b03878116600483018190526024830152928316604482015260648101859052905193945091169163790b5a6c9160848082019260009290919082900301818387803b158015611e1857600080fd5b505af1158015611e2c573d6000803e3d6000fd5b5050600a54600b5460408051631e42d69b60e21b81526001600160a01b03888116600483018190526024830152928316604482015260648101879052905191909216935063790b5a6c9250608480830192600092919082900301818387803b158015611e9757600080fd5b505af1158015611eab573d6000803e3d6000fd5b5050604080516001600160a01b0386168152602081018590528151600080516020612eab8339815191529450908190039091019150a16001600055949350505050565b60026000541415611f34576040805162461bcd60e51b815260206004820152601f6024820152600080516020612e8b833981519152604482015290519081900360640190fd5b6002600055600354610b099033906001600160a01b031683612239565b60026000541415611f97576040805162461bcd60e51b815260206004820152601f6024820152600080516020612e8b833981519152604482015290519081900360640190fd5b6002600055611fa533612224565b6001600055565b6009546001600160a01b031681565b6006546001600160a01b031681565b604080516001600160a01b038416602482015260448082018490528251808303909101815260649091019091526020810180516001600160e01b031663a9059cbb60e01b1790526108c2908490612852565b6000811161205f576040805162461bcd60e51b815260206004820152601d6024820152600080516020612ff7833981519152604482015290519081900360640190fd5b60075460408051631e42d69b60e21b81526001600160a01b03878116600483015286811660248301528581166044830152606482018590529151919092169163790b5a6c91608480830192600092919082900301818387803b1580156120c457600080fd5b505af11580156120d8573d6000803e3d6000fd5b505060085460075460408051631e42d69b60e21b81526001600160a01b03898116600483018190526024830152928316604482015260648101879052905191909216935063790b5a6c9250608480830192600092919082900301818387803b15801561214357600080fd5b505af1158015612157573d6000803e3d6000fd5b505060095460085460408051631e42d69b60e21b81526001600160a01b03898116600483018190526024830152928316604482015260648101879052905191909216935063790b5a6c9250608480830192600092919082900301818387803b1580156121c257600080fd5b505af11580156121d6573d6000803e3d6000fd5b5050604080516001600160a01b03871681526020810185905281517f279ed10802c5d2f72b06f58546551b2cde6c93253be87bbb78d5d565fb95969e9450908190039091019150a150505050565b61222d81612903565b61223681612abb565b50565b6000811161227c576040805162461bcd60e51b815260206004820152601d6024820152600080516020612ff7833981519152604482015290519081900360640190fd5b600754604080516310c1c10360e01b81526001600160a01b038681166004830152915160009392909216916310c1c10391602480820192602092909190829003018186803b1580156122cd57600080fd5b505afa1580156122e1573d6000803e3d6000fd5b505050506040513d60208110156122f757600080fd5b50516009546008546040805163098bf59d60e01b81526001600160a01b03898116600483018190529381166024830152604482018890526064820193909352905193945091169163098bf59d9160848082019260009290919082900301818387803b15801561236557600080fd5b505af1158015612379573d6000803e3d6000fd5b50506008546007546040805163098bf59d60e01b81526001600160a01b038a8116600483018190529381166024830152604482018990526064820193909352905191909216935063098bf59d9250608480830192600092919082900301818387803b1580156123e757600080fd5b505af11580156123fb573d6000803e3d6000fd5b50506007546040805163098bf59d60e01b81526001600160a01b03898116600483018190528982166024840152604483018990526064830152915191909216935063098bf59d9250608480830192600092919082900301818387803b15801561246357600080fd5b505af1158015612477573d6000803e3d6000fd5b5050600854604080516309f4173d60e11b81526001600160a01b038981166004830181905260248301529151600095509190921692506313e82e7a9160448082019260209290919082900301818787803b1580156124d457600080fd5b505af11580156124e8573d6000803e3d6000fd5b505050506040513d60208110156124fe57600080fd5b5051905080156125885760095460055460408051631e42d69b60e21b81526001600160a01b038981166004830181905260248301529283166044820152606481018590529051919092169163790b5a6c91608480830192600092919082900301818387803b15801561256f57600080fd5b505af1158015612583573d6000803e3d6000fd5b505050505b60095460055460408051637aeceb1f60e11b81526001600160a01b03898116600483015292831660248201529051600093929092169163f5d9d63e91604480820192602092909190829003018186803b1580156125e457600080fd5b505afa1580156125f8573d6000803e3d6000fd5b505050506040513d602081101561260e57600080fd5b50519050801561272157600061262e846126288488612b66565b90612bc8565b6009546005546040805163098bf59d60e01b81526001600160a01b038c8116600483018190529381166024830152604482018690526064820193909352905193945091169163098bf59d9160848082019260009290919082900301818387803b15801561269a57600080fd5b505af11580156126ae573d6000803e3d6000fd5b505060055460408051632770a7eb60e21b81526001600160a01b038c81166004830152602482018790529151919092169350639dc29fac9250604480830192600092919082900301818387803b15801561270757600080fd5b505af115801561271b573d6000803e3d6000fd5b50505050505b604080516001600160a01b03881681526020810186905281517f5df2590f0386d79ff4260d539d0c7b99270184721a45743356aa3f50a6f57882929181900390910190a1505050505050565b804710156127c2576040805162461bcd60e51b815260206004820152601d60248201527f416464726573733a20696e73756666696369656e742062616c616e6365000000604482015290519081900360640190fd5b6040516000906001600160a01b0384169083908381818185875af1925050503d806000811461280d576040519150601f19603f3d011682016040523d82523d6000602084013e612812565b606091505b50509050806108c25760405162461bcd60e51b815260040180806020018281038252603a815260200180612f0b603a913960400191505060405180910390fd5b60606128a7826040518060400160405280602081526020017f5361666545524332303a206c6f772d6c6576656c2063616c6c206661696c6564815250856001600160a01b0316612c079092919063ffffffff16565b8051909150156108c2578080602001905160208110156128c657600080fd5b50516108c25760405162461bcd60e51b815260040180806020018281038252602a815260200180612fad602a913960400191505060405180910390fd5b600754604080516309f4173d60e11b81526001600160a01b03848116600483018190526024830152915160009392909216916313e82e7a9160448082019260209290919082900301818787803b15801561295c57600080fd5b505af1158015612970573d6000803e3d6000fd5b505050506040513d602081101561298657600080fd5b5051905080156129aa576004546129aa90839081906001600160a01b03168461201c565b600854604080516309f4173d60e11b81526001600160a01b03858116600483018190526024830152915160009392909216916313e82e7a9160448082019260209290919082900301818787803b158015612a0357600080fd5b505af1158015612a17573d6000803e3d6000fd5b505050506040513d6020811015612a2d57600080fd5b5051905080156108c25760095460055460408051631e42d69b60e21b81526001600160a01b038781166004830181905260248301529283166044820152606481018590529051919092169163790b5a6c91608480830192600092919082900301818387803b158015612a9e57600080fd5b505af1158015612ab2573d6000803e3d6000fd5b50505050505050565b600a54604080516309f4173d60e11b81526001600160a01b03848116600483018190526024830152915160009392909216916313e82e7a9160448082019260209290919082900301818787803b158015612b1457600080fd5b505af1158015612b28573d6000803e3d6000fd5b505050506040513d6020811015612b3e57600080fd5b505190508015612b6257600454612b6290839081906001600160a01b03168461201c565b5050565b600082612b7557506000612bc2565b82820282848281612b8257fe5b0414612bbf5760405162461bcd60e51b8152600401808060200182810382526021815260200180612f8c6021913960400191505060405180910390fd5b90505b92915050565b6000612bbf83836040518060400160405280601a815260200179536166654d6174683a206469766973696f6e206279207a65726f60301b815250612c20565b6060612c168484600085612cc2565b90505b9392505050565b60008183612cac5760405162461bcd60e51b81526004018080602001828103825283818151815260200191508051906020019080838360005b83811015612c71578181015183820152602001612c59565b50505050905090810190601f168015612c9e5780820380516001836020036101000a031916815260200191505b509250505060405180910390fd5b506000838581612cb857fe5b0495945050505050565b606082471015612d035760405162461bcd60e51b8152600401808060200182810382526026815260200180612f666026913960400191505060405180910390fd5b612d0c85612e1e565b612d5d576040805162461bcd60e51b815260206004820152601d60248201527f416464726573733a2063616c6c20746f206e6f6e2d636f6e7472616374000000604482015290519081900360640190fd5b60006060866001600160a01b031685876040518082805190602001908083835b60208310612d9c5780518252601f199092019160209182019101612d7d565b6001836020036101000a03801982511681845116808217855250505050505090500191505060006040518083038185875af1925050503d8060008114612dfe576040519150601f19603f3d011682016040523d82523d6000602084013e612e03565b606091505b5091509150612e13828286612e24565b979650505050505050565b3b151590565b60608315612e33575081612c19565b825115612e435782518084602001fd5b60405162461bcd60e51b8152602060048201818152845160248401528451859391928392604401919085019080838360008315612c71578181015183820152602001612c5956fe5265656e7472616e637947756172643a207265656e7472616e742063616c6c00ad93b2f628eda4195b3bf8738da70d1ba23b7061ffa4fe71aaca907e0b128cce526577617264526f757465723a20696e76616c6964205f7a6c70416d6f756e74476f7665726e61626c653a20666f7262696464656e0000000000000000000000416464726573733a20756e61626c6520746f2073656e642076616c75652c20726563697069656e74206d61792068617665207265766572746564526577617264526f757465723a20616c726561647920696e697469616c697a6564416464726573733a20696e73756666696369656e742062616c616e636520666f722063616c6c536166654d6174683a206d756c7469706c69636174696f6e206f766572666c6f775361666545524332303a204552433230206f7065726174696f6e20646964206e6f74207375636365656483ac00acd50a988c92018e2f35631dfbc00d5bd016c5515fe3758877b1499cf8526577617264526f757465723a20696e76616c6964205f616d6f756e74000000a264697066735822122058f5c1cee8e50230c325447b66bd0f0b826c81c8457f05a0245363a99baa041664736f6c634300060c0033",
  "linkReferences": {},
  "deployedLinkReferences": {}
}