{
  "_format": "hh-sol-artifact-1",
  "contractName": "Router",
  "sourceName": "contracts/core/Router.sol",
  "abi": [
    {
      "inputs": [
        {
          "internalType": "address",
          "name": "_vault",
          "type": "address"
        },
        {
          "internalType": "address",
          "name": "_usdg",
          "type": "address"
        },
        {
          "internalType": "address",
          "name": "_weth",
          "type": "address"
        }
      ],
      "stateMutability": "nonpayable",
      "type": "constructor"
    },
    {
      "anonymous": false,
      "inputs": [
        {
          "indexed": false,
          "internalType": "address",
          "name": "account",
          "type": "address"
        },
        {
          "indexed": false,
          "internalType": "address",
          "name": "tokenIn",
          "type": "address"
        },
        {
          "indexed": false,
          "internalType": "address",
          "name": "tokenOut",
          "type": "address"
        },
        {
          "indexed": false,
          "internalType": "uint256",
          "name": "amountIn",
          "type": "uint256"
        },
        {
          "indexed": false,
          "internalType": "uint256",
          "name": "amountOut",
          "type": "uint256"
        }
      ],
      "name": "Swap",
      "type": "event"
    },
    {
      "inputs": [
        {
          "internalType": "address",
          "name": "_plugin",
          "type": "address"
        }
      ],
      "name": "addPlugin",
      "outputs": [],
      "stateMutability": "nonpayable",
      "type": "function"
    },
    {
      "inputs": [
        {
          "internalType": "address",
          "name": "_plugin",
          "type": "address"
        }
      ],
      "name": "approvePlugin",
      "outputs": [],
      "stateMutability": "nonpayable",
      "type": "function"
    },
    {
      "inputs": [
        {
          "internalType": "address",
          "name": "",
          "type": "address"
        },
        {
          "internalType": "address",
          "name": "",
          "type": "address"
        }
      ],
      "name": "approvedPlugins",
      "outputs": [
        {
          "internalType": "bool",
          "name": "",
          "type": "bool"
        }
      ],
      "stateMutability": "view",
      "type": "function"
    },
    {
      "inputs": [
        {
          "internalType": "address",
          "name": "_collateralToken",
          "type": "address"
        },
        {
          "internalType": "address",
          "name": "_indexToken",
          "type": "address"
        },
        {
          "internalType": "uint256",
          "name": "_collateralDelta",
          "type": "uint256"
        },
        {
          "internalType": "uint256",
          "name": "_sizeDelta",
          "type": "uint256"
        },
        {
          "internalType": "bool",
          "name": "_isLong",
          "type": "bool"
        },
        {
          "internalType": "address",
          "name": "_receiver",
          "type": "address"
        },
        {
          "internalType": "uint256",
          "name": "_price",
          "type": "uint256"
        }
      ],
      "name": "decreasePosition",
      "outputs": [],
      "stateMutability": "nonpayable",
      "type": "function"
    },
    {
      "inputs": [
        {
          "internalType": "address[]",
          "name": "_path",
          "type": "address[]"
        },
        {
          "internalType": "address",
          "name": "_indexToken",
          "type": "address"
        },
        {
          "internalType": "uint256",
          "name": "_collateralDelta",
          "type": "uint256"
        },
        {
          "internalType": "uint256",
          "name": "_sizeDelta",
          "type": "uint256"
        },
        {
          "internalType": "bool",
          "name": "_isLong",
          "type": "bool"
        },
        {
          "internalType": "address",
          "name": "_receiver",
          "type": "address"
        },
        {
          "internalType": "uint256",
          "name": "_price",
          "type": "uint256"
        },
        {
          "internalType": "uint256",
          "name": "_minOut",
          "type": "uint256"
        }
      ],
      "name": "decreasePositionAndSwap",
      "outputs": [],
      "stateMutability": "nonpayable",
      "type": "function"
    },
    {
      "inputs": [
        {
          "internalType": "address[]",
          "name": "_path",
          "type": "address[]"
        },
        {
          "internalType": "address",
          "name": "_indexToken",
          "type": "address"
        },
        {
          "internalType": "uint256",
          "name": "_collateralDelta",
          "type": "uint256"
        },
        {
          "internalType": "uint256",
          "name": "_sizeDelta",
          "type": "uint256"
        },
        {
          "internalType": "bool",
          "name": "_isLong",
          "type": "bool"
        },
        {
          "internalType": "address payable",
          "name": "_receiver",
          "type": "address"
        },
        {
          "internalType": "uint256",
          "name": "_price",
          "type": "uint256"
        },
        {
          "internalType": "uint256",
          "name": "_minOut",
          "type": "uint256"
        }
      ],
      "name": "decreasePositionAndSwapETH",
      "outputs": [],
      "stateMutability": "nonpayable",
      "type": "function"
    },
    {
      "inputs": [
        {
          "internalType": "address",
          "name": "_collateralToken",
          "type": "address"
        },
        {
          "internalType": "address",
          "name": "_indexToken",
          "type": "address"
        },
        {
          "internalType": "uint256",
          "name": "_collateralDelta",
          "type": "uint256"
        },
        {
          "internalType": "uint256",
          "name": "_sizeDelta",
          "type": "uint256"
        },
        {
          "internalType": "bool",
          "name": "_isLong",
          "type": "bool"
        },
        {
          "internalType": "address payable",
          "name": "_receiver",
          "type": "address"
        },
        {
          "internalType": "uint256",
          "name": "_price",
          "type": "uint256"
        }
      ],
      "name": "decreasePositionETH",
      "outputs": [],
      "stateMutability": "nonpayable",
      "type": "function"
    },
    {
      "inputs": [
        {
          "internalType": "address",
          "name": "_plugin",
          "type": "address"
        }
      ],
      "name": "denyPlugin",
      "outputs": [],
      "stateMutability": "nonpayable",
      "type": "function"
    },
    {
      "inputs": [
        {
          "internalType": "address",
          "name": "_token",
          "type": "address"
        },
        {
          "internalType": "uint256",
          "name": "_amount",
          "type": "uint256"
        }
      ],
      "name": "directPoolDeposit",
      "outputs": [],
      "stateMutability": "nonpayable",
      "type": "function"
    },
    {
      "inputs": [],
      "name": "gov",
      "outputs": [
        {
          "internalType": "address",
          "name": "",
          "type": "address"
        }
      ],
      "stateMutability": "view",
      "type": "function"
    },
    {
      "inputs": [
        {
          "internalType": "address[]",
          "name": "_path",
          "type": "address[]"
        },
        {
          "internalType": "address",
          "name": "_indexToken",
          "type": "address"
        },
        {
          "internalType": "uint256",
          "name": "_amountIn",
          "type": "uint256"
        },
        {
          "internalType": "uint256",
          "name": "_minOut",
          "type": "uint256"
        },
        {
          "internalType": "uint256",
          "name": "_sizeDelta",
          "type": "uint256"
        },
        {
          "internalType": "bool",
          "name": "_isLong",
          "type": "bool"
        },
        {
          "internalType": "uint256",
          "name": "_price",
          "type": "uint256"
        }
      ],
      "name": "increasePosition",
      "outputs": [],
      "stateMutability": "nonpayable",
      "type": "function"
    },
    {
      "inputs": [
        {
          "internalType": "address[]",
          "name": "_path",
          "type": "address[]"
        },
        {
          "internalType": "address",
          "name": "_indexToken",
          "type": "address"
        },
        {
          "internalType": "uint256",
          "name": "_minOut",
          "type": "uint256"
        },
        {
          "internalType": "uint256",
          "name": "_sizeDelta",
          "type": "uint256"
        },
        {
          "internalType": "bool",
          "name": "_isLong",
          "type": "bool"
        },
        {
          "internalType": "uint256",
          "name": "_price",
          "type": "uint256"
        }
      ],
      "name": "increasePositionETH",
      "outputs": [],
      "stateMutability": "payable",
      "type": "function"
    },
    {
      "inputs": [
        {
          "internalType": "address",
          "name": "_account",
          "type": "address"
        },
        {
          "internalType": "address",
          "name": "_collateralToken",
          "type": "address"
        },
        {
          "internalType": "address",
          "name": "_indexToken",
          "type": "address"
        },
        {
          "internalType": "uint256",
          "name": "_collateralDelta",
          "type": "uint256"
        },
        {
          "internalType": "uint256",
          "name": "_sizeDelta",
          "type": "uint256"
        },
        {
          "internalType": "bool",
          "name": "_isLong",
          "type": "bool"
        },
        {
          "internalType": "address",
          "name": "_receiver",
          "type": "address"
        }
      ],
      "name": "pluginDecreasePosition",
      "outputs": [
        {
          "internalType": "uint256",
          "name": "",
          "type": "uint256"
        }
      ],
      "stateMutability": "nonpayable",
      "type": "function"
    },
    {
      "inputs": [
        {
          "internalType": "address",
          "name": "_account",
          "type": "address"
        },
        {
          "internalType": "address",
          "name": "_collateralToken",
          "type": "address"
        },
        {
          "internalType": "address",
          "name": "_indexToken",
          "type": "address"
        },
        {
          "internalType": "uint256",
          "name": "_sizeDelta",
          "type": "uint256"
        },
        {
          "internalType": "bool",
          "name": "_isLong",
          "type": "bool"
        }
      ],
      "name": "pluginIncreasePosition",
      "outputs": [],
      "stateMutability": "nonpayable",
      "type": "function"
    },
    {
      "inputs": [
        {
          "internalType": "address",
          "name": "_token",
          "type": "address"
        },
        {
          "internalType": "address",
          "name": "_account",
          "type": "address"
        },
        {
          "internalType": "address",
          "name": "_receiver",
          "type": "address"
        },
        {
          "internalType": "uint256",
          "name": "_amount",
          "type": "uint256"
        }
      ],
      "name": "pluginTransfer",
      "outputs": [],
      "stateMutability": "nonpayable",
      "type": "function"
    },
    {
      "inputs": [
        {
          "internalType": "address",
          "name": "",
          "type": "address"
        }
      ],
      "name": "plugins",
      "outputs": [
        {
          "internalType": "bool",
          "name": "",
          "type": "bool"
        }
      ],
      "stateMutability": "view",
      "type": "function"
    },
    {
      "inputs": [
        {
          "internalType": "address",
          "name": "_plugin",
          "type": "address"
        }
      ],
      "name": "removePlugin",
      "outputs": [],
      "stateMutability": "nonpayable",
      "type": "function"
    },
    {
      "inputs": [
        {
          "internalType": "address",
          "name": "_gov",
          "type": "address"
        }
      ],
      "name": "setGov",
      "outputs": [],
      "stateMutability": "nonpayable",
      "type": "function"
    },
    {
      "inputs": [
        {
          "internalType": "address[]",
          "name": "_path",
          "type": "address[]"
        },
        {
          "internalType": "uint256",
          "name": "_amountIn",
          "type": "uint256"
        },
        {
          "internalType": "uint256",
          "name": "_minOut",
          "type": "uint256"
        },
        {
          "internalType": "address",
          "name": "_receiver",
          "type": "address"
        }
      ],
      "name": "swap",
      "outputs": [],
      "stateMutability": "nonpayable",
      "type": "function"
    },
    {
      "inputs": [
        {
          "internalType": "address[]",
          "name": "_path",
          "type": "address[]"
        },
        {
          "internalType": "uint256",
          "name": "_minOut",
          "type": "uint256"
        },
        {
          "internalType": "address",
          "name": "_receiver",
          "type": "address"
        }
      ],
      "name": "swapETHToTokens",
      "outputs": [],
      "stateMutability": "payable",
      "type": "function"
    },
    {
      "inputs": [
        {
          "internalType": "address[]",
          "name": "_path",
          "type": "address[]"
        },
        {
          "internalType": "uint256",
          "name": "_amountIn",
          "type": "uint256"
        },
        {
          "internalType": "uint256",
          "name": "_minOut",
          "type": "uint256"
        },
        {
          "internalType": "address payable",
          "name": "_receiver",
          "type": "address"
        }
      ],
      "name": "swapTokensToETH",
      "outputs": [],
      "stateMutability": "nonpayable",
      "type": "function"
    },
    {
      "inputs": [],
      "name": "usdg",
      "outputs": [
        {
          "internalType": "address",
          "name": "",
          "type": "address"
        }
      ],
      "stateMutability": "view",
      "type": "function"
    },
    {
      "inputs": [],
      "name": "vault",
      "outputs": [
        {
          "internalType": "address",
          "name": "",
          "type": "address"
        }
      ],
      "stateMutability": "view",
      "type": "function"
    },
    {
      "inputs": [],
      "name": "weth",
      "outputs": [
        {
          "internalType": "address",
          "name": "",
          "type": "address"
        }
      ],
      "stateMutability": "view",
      "type": "function"
    },
    {
      "stateMutability": "payable",
      "type": "receive"
    }
  ],
  "bytecode": "0x608060405234801561001057600080fd5b506040516124773803806124778339818101604052606081101561003357600080fd5b5080516020820151604090920151600380546001600160a01b039384166001600160a01b0319918216179091556002805494841694821694909417909355600180549290911691831691909117905560008054909116331790556123db8061009c6000396000f3fe60806040526004361061011f5760003560e01c806312d43a51146101835780631b827878146101b45780631f1dd176146101fd5780632662166b1461024e5780632d4ba6a7146102c15780633039e37f1461038357806338c74dd9146104635780633fc8cef314610496578063430ed37c146104ab5780634b12e6431461050a5780635fc8500e146105515780636023e9661461063157806390205d8c146106f357806390b64ad314610752578063956f285e1461078b578063a4d95b64146107c6578063abe68eaa146107f9578063b32755de146108a8578063b7ddc9921461096b578063cedd437514610a41578063cfad57a214610a74578063d8867fc814610aa7578063f5b91b7b14610ada578063fbfa77cf14610aef5761017e565b3661017e576001546001600160a01b0316331461017c576040805162461bcd60e51b81526020600482015260166024820152752937baba32b91d1034b73b30b634b21039b2b73232b960511b604482015290519081900360640190fd5b005b600080fd5b34801561018f57600080fd5b50610198610b04565b604080516001600160a01b039092168252519081900360200190f35b3480156101c057600080fd5b5061017c600480360360808110156101d757600080fd5b506001600160a01b03813581169160208101358216916040820135169060600135610b13565b34801561020957600080fd5b5061017c600480360360a081101561022057600080fd5b506001600160a01b038135811691602081013582169160408201351690606081013590608001351515610b37565b34801561025a57600080fd5b506102af600480360360e081101561027157600080fd5b506001600160a01b0381358116916020810135821691604082013581169160608101359160808201359160a081013515159160c09091013516610bcc565b60408051918252519081900360200190f35b3480156102cd57600080fd5b5061017c600480360360808110156102e457600080fd5b810190602081018135600160201b8111156102fe57600080fd5b82018360208201111561031057600080fd5b803590602001918460208302840111600160201b8311171561033157600080fd5b91908080602002602001604051908101604052809392919081815260200183836020028082843760009201919091525092955050823593505050602081013590604001356001600160a01b0316610c8c565b34801561038f57600080fd5b5061017c60048036036101008110156103a757600080fd5b810190602081018135600160201b8111156103c157600080fd5b8201836020820111156103d357600080fd5b803590602001918460208302840111600160201b831117156103f457600080fd5b919080806020026020016040519081016040528093929190818152602001838360200280828437600092019190915250929550505081356001600160a01b0390811693506020830135926040810135925060608101351515916080820135169060a08101359060c00135610df3565b34801561046f57600080fd5b5061017c6004803603602081101561048657600080fd5b50356001600160a01b0316610ef8565b3480156104a257600080fd5b50610198610f29565b3480156104b757600080fd5b5061017c600480360360e08110156104ce57600080fd5b506001600160a01b0381358116916020810135821691604082013591606081013591608082013515159160a08101359091169060c00135610f38565b34801561051657600080fd5b5061053d6004803603602081101561052d57600080fd5b50356001600160a01b0316610f5f565b604080519115158252519081900360200190f35b34801561055d57600080fd5b5061017c600480360361010081101561057557600080fd5b810190602081018135600160201b81111561058f57600080fd5b8201836020820111156105a157600080fd5b803590602001918460208302840111600160201b831117156105c257600080fd5b919080806020026020016040519081016040528093929190818152602001838360200280828437600092019190915250929550505081356001600160a01b0390811693506020830135926040810135925060608101351515916080820135169060a08101359060c00135610f74565b34801561063d57600080fd5b5061017c6004803603608081101561065457600080fd5b810190602081018135600160201b81111561066e57600080fd5b82018360208201111561068057600080fd5b803590602001918460208302840111600160201b831117156106a157600080fd5b91908080602002602001604051908101604052809392919081815260200183836020028082843760009201919091525092955050823593505050602081013590604001356001600160a01b0316610fba565b3480156106ff57600080fd5b5061017c600480360360e081101561071657600080fd5b506001600160a01b0381358116916020810135821691604082013591606081013591608082013515159160a08101359091169060c00135610ff1565b34801561075e57600080fd5b5061017c6004803603604081101561077557600080fd5b506001600160a01b038135169060200135611000565b34801561079757600080fd5b5061053d600480360360408110156107ae57600080fd5b506001600160a01b038135811691602001351661108c565b3480156107d257600080fd5b5061017c600480360360208110156107e957600080fd5b50356001600160a01b03166110ac565b61017c6004803603606081101561080f57600080fd5b810190602081018135600160201b81111561082957600080fd5b82018360208201111561083b57600080fd5b803590602001918460208302840111600160201b8311171561085c57600080fd5b91908080602002602001604051908101604052809392919081815260200183836020028082843760009201919091525092955050823593505050602001356001600160a01b0316611120565b61017c600480360360c08110156108be57600080fd5b810190602081018135600160201b8111156108d857600080fd5b8201836020820111156108ea57600080fd5b803590602001918460208302840111600160201b8311171561090b57600080fd5b919080806020026020016040519081016040528093929190818152602001838360200280828437600092019190915250929550506001600160a01b0383351693505050602081013590604081013590606081013515159060800135611235565b34801561097757600080fd5b5061017c600480360360e081101561098e57600080fd5b810190602081018135600160201b8111156109a857600080fd5b8201836020820111156109ba57600080fd5b803590602001918460208302840111600160201b831117156109db57600080fd5b919080806020026020016040519081016040528093929190818152602001838360200280828437600092019190915250929550506001600160a01b0383351693505050602081013590604081013590606081013590608081013515159060a00135611325565b348015610a4d57600080fd5b5061017c60048036036020811015610a6457600080fd5b50356001600160a01b03166113d2565b348015610a8057600080fd5b5061017c60048036036020811015610a9757600080fd5b50356001600160a01b0316611400565b348015610ab357600080fd5b5061017c60048036036020811015610aca57600080fd5b50356001600160a01b0316611475565b348015610ae657600080fd5b506101986114ec565b348015610afb57600080fd5b506101986114fb565b6000546001600160a01b031681565b610b1c8361150a565b610b316001600160a01b0385168484846115e0565b50505050565b610b408561150a565b600354604080516348d91abf60e01b81526001600160a01b03888116600483015287811660248301528681166044830152606482018690528415156084830152915191909216916348d91abf9160a480830192600092919082900301818387803b158015610bad57600080fd5b505af1158015610bc1573d6000803e3d6000fd5b505050505050505050565b6000610bd78861150a565b6003546040805163082a084960e41b81526001600160a01b038b811660048301528a811660248301528981166044830152606482018990526084820188905286151560a483015285811660c4830152915191909216916382a084909160e48083019260209291908290030181600087803b158015610c5457600080fd5b505af1158015610c68573d6000803e3d6000fd5b505050506040513d6020811015610c7e57600080fd5b505198975050505050505050565b60015484516001600160a01b039091169085906000198101908110610cad57fe5b60200260200101516001600160a01b031614610cfe576040805162461bcd60e51b81526020600482015260156024820152600080516020612295833981519152604482015290519081900360640190fd5b610d48610d0961163a565b60035486516001600160a01b039091169086908890600090610d2757fe5b60200260200101516001600160a01b03166115e0909392919063ffffffff16565b6000610d5585843061163e565b9050610d61818361177e565b6000805160206123388339815191523386600081518110610d7e57fe5b602002602001015187600189510381518110610d9657fe5b6020026020010151878560405180866001600160a01b03168152602001856001600160a01b03168152602001846001600160a01b031681526020018381526020018281526020019550505050505060405180910390a15050505050565b60015488516001600160a01b039091169089906000198101908110610e1457fe5b60200260200101516001600160a01b031614610e65576040805162461bcd60e51b81526020600482015260156024820152600080516020612295833981519152604482015290519081900360640190fd5b6000610e8a89600081518110610e7757fe5b60200260200101518989898930896117fb565b9050610ed3600360009054906101000a90046001600160a01b0316828b600081518110610eb357fe5b60200260200101516001600160a01b0316611a089092919063ffffffff16565b6000610ee08a843061163e565b9050610eec818661177e565b50505050505050505050565b3360009081526005602090815260408083206001600160a01b0394909416835292905220805460ff19166001179055565b6001546001600160a01b031681565b6000610f49888888888830886117fb565b9050610f55818461177e565b5050505050505050565b60046020526000908152604090205460ff1681565b6000610f8689600081518110610e7757fe5b9050610faf600360009054906101000a90046001600160a01b0316828b600081518110610eb357fe5b610eec89838661163e565b610fc5610d0961163a565b6000610fd285848461163e565b90506000805160206123388339815191523386600081518110610d7e57fe5b610f55878787878787876117fb565b61102261100b61163a565b6003546001600160a01b03858116929116846115e0565b60035460408051635f7bc11960e01b81526001600160a01b03858116600483015291519190921691635f7bc11991602480830192600092919082900301818387803b15801561107057600080fd5b505af1158015611084573d6000803e3d6000fd5b505050505050565b600560209081526000928352604080842090915290825290205460ff1681565b6000546001600160a01b031633146110ff576040805162461bcd60e51b81526020600482015260116024820152702937baba32b91d103337b93134b23232b760791b604482015290519081900360640190fd5b6001600160a01b03166000908152600460205260409020805460ff19169055565b60015483516001600160a01b0390911690849060009061113c57fe5b60200260200101516001600160a01b03161461118d576040805162461bcd60e51b81526020600482015260156024820152600080516020612295833981519152604482015290519081900360640190fd5b611195611a5f565b60006111a284848461163e565b905060008051602061233883398151915233856000815181106111c157fe5b6020026020010151866001885103815181106111d957fe5b6020026020010151348560405180866001600160a01b03168152602001856001600160a01b03168152602001846001600160a01b031681526020018381526020018281526020019550505050505060405180910390a150505050565b60015486516001600160a01b0390911690879060009061125157fe5b60200260200101516001600160a01b0316146112a2576040805162461bcd60e51b81526020600482015260156024820152600080516020612295833981519152604482015290519081900360640190fd5b34156112b0576112b0611a5f565b600186511180156112c15750600034115b156113015760006112d387863061163e565b90506112ff600360009054906101000a90046001600160a01b0316828960018b510381518110610eb357fe5b505b6110848660018851038151811061131457fe5b602002602001015186858585611ae8565b84156113545761135461133661163a565b60035489516001600160a01b039091169088908b90600090610d2757fe5b600187511180156113655750600085115b156113a557600061137788863061163e565b90506113a3600360009054906101000a90046001600160a01b0316828a60018c510381518110610eb357fe5b505b6113c9876001895103815181106113b857fe5b602002602001015187858585611ae8565b50505050505050565b3360009081526005602090815260408083206001600160a01b0394909416835292905220805460ff19169055565b6000546001600160a01b03163314611453576040805162461bcd60e51b81526020600482015260116024820152702937baba32b91d103337b93134b23232b760791b604482015290519081900360640190fd5b600080546001600160a01b0319166001600160a01b0392909216919091179055565b6000546001600160a01b031633146114c8576040805162461bcd60e51b81526020600482015260116024820152702937baba32b91d103337b93134b23232b760791b604482015290519081900360640190fd5b6001600160a01b03166000908152600460205260409020805460ff19166001179055565b6002546001600160a01b031681565b6003546001600160a01b031681565b3360009081526004602052604090205460ff16611567576040805162461bcd60e51b81526020600482015260166024820152752937baba32b91d1034b73b30b634b21038363ab3b4b760511b604482015290519081900360640190fd5b6001600160a01b038116600090815260056020908152604080832033845290915290205460ff166115dd576040805162461bcd60e51b815260206004820152601b60248201527a149bdd5d195c8e881c1b1d59da5b881b9bdd08185c1c1c9bdd9959602a1b604482015290519081900360640190fd5b50565b604080516001600160a01b0380861660248301528416604482015260648082018490528251808303909101815260849091019091526020810180516001600160e01b03166323b872dd60e01b179052610b31908590611ce3565b3390565b60008351600214156116855761167e8460008151811061165a57fe5b60200260200101518560018151811061166f57fe5b60200260200101518585611d94565b9050611777565b83516003141561172b5760006116c6856000815181106116a157fe5b6020026020010151866001815181106116b657fe5b6020026020010151600030611d94565b90506116ef600360009054906101000a90046001600160a01b03168287600181518110610eb357fe5b611723856001815181106116ff57fe5b60200260200101518660028151811061171457fe5b60200260200101518686611d94565b915050611777565b6040805162461bcd60e51b815260206004820152601c60248201527b0a4deeae8cae47440d2dcecc2d8d2c840bee0c2e8d05cd8cadccee8d60231b604482015290519081900360640190fd5b9392505050565b60015460408051632e1a7d4d60e01b81526004810185905290516001600160a01b0390921691632e1a7d4d9160248082019260009290919082900301818387803b1580156117cb57600080fd5b505af11580156117df573d6000803e3d6000fd5b506117f7925050506001600160a01b03821683611f92565b5050565b600083156118c157600354604080516340d3096b60e11b81526001600160a01b038a811660048301529151859392909216916381a612d691602480820192602092909190829003018186803b15801561185357600080fd5b505afa158015611867573d6000803e3d6000fd5b505050506040513d602081101561187d57600080fd5b505110156118bc5760405162461bcd60e51b81526004018080602001828103825260238152602001806123156023913960400191505060405180910390fd5b61197a565b60035460408051637092736960e11b81526001600160a01b038a8116600483015291518593929092169163e124e6d291602480820192602092909190829003018186803b15801561191157600080fd5b505afa158015611925573d6000803e3d6000fd5b505050506040513d602081101561193b57600080fd5b5051111561197a5760405162461bcd60e51b81526004018080602001828103825260248152602001806123826024913960400191505060405180910390fd5b6003546001600160a01b03166382a0849061199361163a565b604080516001600160e01b031960e085901b1681526001600160a01b039283166004820152828d166024820152828c166044820152606481018b9052608481018a905288151560a482015291871660c48301525160e48083019260209291908290030181600087803b158015610c5457600080fd5b604080516001600160a01b038416602482015260448082018490528251808303909101815260649091019091526020810180516001600160e01b031663a9059cbb60e01b179052611a5a908490611ce3565b505050565b600160009054906101000a90046001600160a01b03166001600160a01b031663d0e30db0346040518263ffffffff1660e01b81526004016000604051808303818588803b158015611aaf57600080fd5b505af1158015611ac3573d6000803e3d6000fd5b5050600354600154611ae694506001600160a01b03908116935016905034611a08565b565b8115611bac5760035460408051637092736960e11b81526001600160a01b03878116600483015291518493929092169163e124e6d291602480820192602092909190829003018186803b158015611b3e57600080fd5b505afa158015611b52573d6000803e3d6000fd5b505050506040513d6020811015611b6857600080fd5b50511115611ba75760405162461bcd60e51b81526004018080602001828103825260248152602001806123826024913960400191505060405180910390fd5b611c65565b600354604080516340d3096b60e11b81526001600160a01b0387811660048301529151849392909216916381a612d691602480820192602092909190829003018186803b158015611bfc57600080fd5b505afa158015611c10573d6000803e3d6000fd5b505050506040513d6020811015611c2657600080fd5b50511015611c655760405162461bcd60e51b81526004018080602001828103825260238152602001806123156023913960400191505060405180910390fd5b6003546001600160a01b03166348d91abf611c7e61163a565b604080516001600160e01b031960e085901b1681526001600160a01b039283166004820152828a16602482015291881660448301526064820187905285151560848301525160a480830192600092919082900301818387803b158015610bad57600080fd5b6060611d38826040518060400160405280602081526020017f5361666545524332303a206c6f772d6c6576656c2063616c6c206661696c6564815250856001600160a01b03166120779092919063ffffffff16565b805190915015611a5a57808060200190516020811015611d5757600080fd5b5051611a5a5760405162461bcd60e51b815260040180806020018281038252602a815260200180612358602a913960400191505060405180910390fd5b60025460009081906001600160a01b0386811691161415611e39576003546040805163817bb85760e01b81526001600160a01b03898116600483015286811660248301529151919092169163817bb8579160448083019260209291908290030181600087803b158015611e0657600080fd5b505af1158015611e1a573d6000803e3d6000fd5b505050506040513d6020811015611e3057600080fd5b50519050611f34565b6002546001600160a01b0387811691161415611ea65760035460408051630711e61960e41b81526001600160a01b03888116600483015286811660248301529151919092169163711e61909160448083019260209291908290030181600087803b158015611e0657600080fd5b60035460408051634998b10960e11b81526001600160a01b038981166004830152888116602483015286811660448301529151919092169163933162129160648083019260209291908290030181600087803b158015611f0557600080fd5b505af1158015611f19573d6000803e3d6000fd5b505050506040513d6020811015611f2f57600080fd5b505190505b83811015611f89576040805162461bcd60e51b815260206004820152601e60248201527f526f757465723a20696e73756666696369656e7420616d6f756e744f75740000604482015290519081900360640190fd5b95945050505050565b80471015611fe7576040805162461bcd60e51b815260206004820152601d60248201527f416464726573733a20696e73756666696369656e742062616c616e6365000000604482015290519081900360640190fd5b6040516000906001600160a01b0384169083908381818185875af1925050503d8060008114612032576040519150601f19603f3d011682016040523d82523d6000602084013e612037565b606091505b5050905080611a5a5760405162461bcd60e51b815260040180806020018281038252603a8152602001806122b5603a913960400191505060405180910390fd5b6060612086848460008561208e565b949350505050565b6060824710156120cf5760405162461bcd60e51b81526004018080602001828103825260268152602001806122ef6026913960400191505060405180910390fd5b6120d8856121ea565b612129576040805162461bcd60e51b815260206004820152601d60248201527f416464726573733a2063616c6c20746f206e6f6e2d636f6e7472616374000000604482015290519081900360640190fd5b60006060866001600160a01b031685876040518082805190602001908083835b602083106121685780518252601f199092019160209182019101612149565b6001836020036101000a03801982511681845116808217855250505050505090500191505060006040518083038185875af1925050503d80600081146121ca576040519150601f19603f3d011682016040523d82523d6000602084013e6121cf565b606091505b50915091506121df8282866121f0565b979650505050505050565b3b151590565b606083156121ff575081611777565b82511561220f5782518084602001fd5b8160405162461bcd60e51b81526004018080602001828103825283818151815260200191508051906020019080838360005b83811015612259578181015183820152602001612241565b50505050905090810190601f1680156122865780820380516001836020036101000a031916815260200191505b509250505060405180910390fdfe526f757465723a20696e76616c6964205f706174680000000000000000000000416464726573733a20756e61626c6520746f2073656e642076616c75652c20726563697069656e74206d61792068617665207265766572746564416464726573733a20696e73756666696369656e742062616c616e636520666f722063616c6c526f757465723a206d61726b207072696365206c6f776572207468616e206c696d6974cd3829a3813dc3cdd188fd3d01dcf3268c16be2fdd2dd21d0665418816e460625361666545524332303a204552433230206f7065726174696f6e20646964206e6f742073756363656564526f757465723a206d61726b20707269636520686967686572207468616e206c696d6974a26469706673582212208dfc0deff7fd2c4b6e91f89d320e6d73a4cff4e5952dc4f45ce9a5f50084cae964736f6c634300060c0033",
  "linkReferences": {},
  "deployedLinkReferences": {}
}