{
  "_format": "hh-sol-artifact-1",
  "contractName": "Treasury",
  "sourceName": "contracts/zmt/Treasury.sol",
  "abi": [
    {
      "inputs": [],
      "stateMutability": "nonpayable",
      "type": "constructor"
    },
    {
      "inputs": [],
      "name": "addLiquidity",
      "outputs": [],
      "stateMutability": "nonpayable",
      "type": "function"
    },
    {
      "inputs": [
        {
          "internalType": "address[]",
          "name": "_accounts",
          "type": "address[]"
        }
      ],
      "name": "addWhitelists",
      "outputs": [],
      "stateMutability": "nonpayable",
      "type": "function"
    },
    {
      "inputs": [],
      "name": "busd",
      "outputs": [
        {
          "internalType": "address",
          "name": "",
          "type": "address"
        }
      ],
      "stateMutability": "view",
      "type": "function"
    },
    {
      "inputs": [],
      "name": "busdBasisPoints",
      "outputs": [
        {
          "internalType": "uint256",
          "name": "",
          "type": "uint256"
        }
      ],
      "stateMutability": "view",
      "type": "function"
    },
    {
      "inputs": [],
      "name": "busdHardCap",
      "outputs": [
        {
          "internalType": "uint256",
          "name": "",
          "type": "uint256"
        }
      ],
      "stateMutability": "view",
      "type": "function"
    },
    {
      "inputs": [],
      "name": "busdReceived",
      "outputs": [
        {
          "internalType": "uint256",
          "name": "",
          "type": "uint256"
        }
      ],
      "stateMutability": "view",
      "type": "function"
    },
    {
      "inputs": [],
      "name": "busdSlotCap",
      "outputs": [
        {
          "internalType": "uint256",
          "name": "",
          "type": "uint256"
        }
      ],
      "stateMutability": "view",
      "type": "function"
    },
    {
      "inputs": [],
      "name": "endSwap",
      "outputs": [],
      "stateMutability": "nonpayable",
      "type": "function"
    },
    {
      "inputs": [
        {
          "internalType": "uint256",
          "name": "_unlockTime",
          "type": "uint256"
        }
      ],
      "name": "extendUnlockTime",
      "outputs": [],
      "stateMutability": "nonpayable",
      "type": "function"
    },
    {
      "inputs": [],
      "name": "fund",
      "outputs": [
        {
          "internalType": "address",
          "name": "",
          "type": "address"
        }
      ],
      "stateMutability": "view",
      "type": "function"
    },
    {
      "inputs": [],
      "name": "gov",
      "outputs": [
        {
          "internalType": "address",
          "name": "",
          "type": "address"
        }
      ],
      "stateMutability": "view",
      "type": "function"
    },
    {
      "inputs": [
        {
          "internalType": "uint256",
          "name": "_busdBasisPoints",
          "type": "uint256"
        }
      ],
      "name": "increaseBusdBasisPoints",
      "outputs": [],
      "stateMutability": "nonpayable",
      "type": "function"
    },
    {
      "inputs": [
        {
          "internalType": "address[]",
          "name": "_addresses",
          "type": "address[]"
        },
        {
          "internalType": "uint256[]",
          "name": "_values",
          "type": "uint256[]"
        }
      ],
      "name": "initialize",
      "outputs": [],
      "stateMutability": "nonpayable",
      "type": "function"
    },
    {
      "inputs": [],
      "name": "isInitialized",
      "outputs": [
        {
          "internalType": "bool",
          "name": "",
          "type": "bool"
        }
      ],
      "stateMutability": "view",
      "type": "function"
    },
    {
      "inputs": [],
      "name": "isLiquidityAdded",
      "outputs": [
        {
          "internalType": "bool",
          "name": "",
          "type": "bool"
        }
      ],
      "stateMutability": "view",
      "type": "function"
    },
    {
      "inputs": [],
      "name": "isSwapActive",
      "outputs": [
        {
          "internalType": "bool",
          "name": "",
          "type": "bool"
        }
      ],
      "stateMutability": "view",
      "type": "function"
    },
    {
      "inputs": [
        {
          "internalType": "address[]",
          "name": "_accounts",
          "type": "address[]"
        }
      ],
      "name": "removeWhitelists",
      "outputs": [],
      "stateMutability": "nonpayable",
      "type": "function"
    },
    {
      "inputs": [],
      "name": "router",
      "outputs": [
        {
          "internalType": "address",
          "name": "",
          "type": "address"
        }
      ],
      "stateMutability": "view",
      "type": "function"
    },
    {
      "inputs": [
        {
          "internalType": "address",
          "name": "_fund",
          "type": "address"
        }
      ],
      "name": "setFund",
      "outputs": [],
      "stateMutability": "nonpayable",
      "type": "function"
    },
    {
      "inputs": [
        {
          "internalType": "address",
          "name": "_gov",
          "type": "address"
        }
      ],
      "name": "setGov",
      "outputs": [],
      "stateMutability": "nonpayable",
      "type": "function"
    },
    {
      "inputs": [
        {
          "internalType": "uint256",
          "name": "_busdAmount",
          "type": "uint256"
        }
      ],
      "name": "swap",
      "outputs": [],
      "stateMutability": "nonpayable",
      "type": "function"
    },
    {
      "inputs": [
        {
          "internalType": "address",
          "name": "",
          "type": "address"
        }
      ],
      "name": "swapAmounts",
      "outputs": [
        {
          "internalType": "uint256",
          "name": "",
          "type": "uint256"
        }
      ],
      "stateMutability": "view",
      "type": "function"
    },
    {
      "inputs": [
        {
          "internalType": "address",
          "name": "",
          "type": "address"
        }
      ],
      "name": "swapWhitelist",
      "outputs": [
        {
          "internalType": "bool",
          "name": "",
          "type": "bool"
        }
      ],
      "stateMutability": "view",
      "type": "function"
    },
    {
      "inputs": [],
      "name": "unlockTime",
      "outputs": [
        {
          "internalType": "uint256",
          "name": "",
          "type": "uint256"
        }
      ],
      "stateMutability": "view",
      "type": "function"
    },
    {
      "inputs": [
        {
          "internalType": "address",
          "name": "prevAccount",
          "type": "address"
        },
        {
          "internalType": "address",
          "name": "nextAccount",
          "type": "address"
        }
      ],
      "name": "updateWhitelist",
      "outputs": [],
      "stateMutability": "nonpayable",
      "type": "function"
    },
    {
      "inputs": [
        {
          "internalType": "address",
          "name": "_token",
          "type": "address"
        },
        {
          "internalType": "address",
          "name": "_account",
          "type": "address"
        },
        {
          "internalType": "uint256",
          "name": "_amount",
          "type": "uint256"
        }
      ],
      "name": "withdrawToken",
      "outputs": [],
      "stateMutability": "nonpayable",
      "type": "function"
    },
    {
      "inputs": [],
      "name": "zmt",
      "outputs": [
        {
          "internalType": "address",
          "name": "",
          "type": "address"
        }
      ],
      "stateMutability": "view",
      "type": "function"
    },
    {
      "inputs": [],
      "name": "zmtListingPrice",
      "outputs": [
        {
          "internalType": "uint256",
          "name": "",
          "type": "uint256"
        }
      ],
      "stateMutability": "view",
      "type": "function"
    },
    {
      "inputs": [],
      "name": "zmtPresalePrice",
      "outputs": [
        {
          "internalType": "uint256",
          "name": "",
          "type": "uint256"
        }
      ],
      "stateMutability": "view",
      "type": "function"
    }
  ],
  "bytecode": "0x60806040526001805462ff00001961ff00199091166101001716905534801561002757600080fd5b506001600055600c80546001600160a01b03191633179055611dae8061004e6000396000f3fe608060405234801561001057600080fd5b506004361061015f5760003560e01c806301e33667146101645780630e21750f1461019c57806312d43a51146101c25780631e17ba39146101e657806321089a5014610202578063251c1aa31461021f578063281bd79814610239578063392e53cd146102da5780633ca5b234146102e2578063442bbad6146102ea57806363bd4bdf14610310578063670762271461031857806377b4da2c146103205780637fbbe46f1461032857806394b918de1461044b578063a1f791e214610468578063ab2b04cf14610470578063b60d42881461049e578063bbc9628e146104a6578063c2333ee8146104ae578063c8eaf28f146104cb578063cfad57a21461056c578063d043596114610592578063dec9b196146105b8578063e35bff96146105c0578063e3cb6ea3146105c8578063e8078d94146105d0578063f6f4f55b146105d8578063f887ea40146105e0575b600080fd5b61019a6004803603606081101561017a57600080fd5b506001600160a01b038135811691602081013590911690604001356105e8565b005b61019a600480360360208110156101b257600080fd5b50356001600160a01b031661074d565b6101ca610807565b604080516001600160a01b039092168252519081900360200190f35b6101ee610816565b604080519115158252519081900360200190f35b61019a6004803603602081101561021857600080fd5b5035610825565b610227610907565b60408051918252519081900360200190f35b61019a6004803603602081101561024f57600080fd5b810190602081018135600160201b81111561026957600080fd5b82018360208201111561027b57600080fd5b803590602001918460208302840111600160201b8311171561029c57600080fd5b91908080602002602001604051908101604052809392919081815260200183836020028082843760009201919091525092955061090d945050505050565b6101ee6109fc565b6101ca610a05565b6102276004803603602081101561030057600080fd5b50356001600160a01b0316610a14565b610227610a26565b610227610a2c565b610227610a32565b61019a6004803603604081101561033e57600080fd5b810190602081018135600160201b81111561035857600080fd5b82018360208201111561036a57600080fd5b803590602001918460208302840111600160201b8311171561038b57600080fd5b9190808060200260200160405190810160405280939291908181526020018383602002808284376000920191909152509295949360208101935035915050600160201b8111156103da57600080fd5b8201836020820111156103ec57600080fd5b803590602001918460208302840111600160201b8311171561040d57600080fd5b919080806020026020016040519081016040528093929190818152602001838360200280828437600092019190915250929550610a38945050505050565b61019a6004803603602081101561046157600080fd5b5035610c7b565b6101ca611138565b61019a6004803603604081101561048657600080fd5b506001600160a01b038135811691602001351661114e565b6101ca611291565b6102276112a0565b61019a600480360360208110156104c457600080fd5b50356112a6565b61019a600480360360208110156104e157600080fd5b810190602081018135600160201b8111156104fb57600080fd5b82018360208201111561050d57600080fd5b803590602001918460208302840111600160201b8311171561052e57600080fd5b91908080602002602001604051908101604052809392919081815260200183836020028082843760009201919091525092955061139e945050505050565b61019a6004803603602081101561058257600080fd5b50356001600160a01b031661148c565b6101ee600480360360208110156105a857600080fd5b50356001600160a01b0316611546565b61022761155b565b6101ee611561565b61019a61156f565b61019a611612565b610227611a43565b6101ca611a49565b600c546001600160a01b03163314610635576040805162461bcd60e51b81526020600482015260136024820152600080516020611c90833981519152604482015290519081900360640190fd5b6002600054141561067b576040805162461bcd60e51b815260206004820152601f6024820152600080516020611cb0833981519152604482015290519081900360640190fd5b6002600055600a5442116106c05760405162461bcd60e51b8152600401808060200182810382526023815260200180611d356023913960400191505060405180910390fd5b826001600160a01b031663a9059cbb83836040518363ffffffff1660e01b815260040180836001600160a01b0316815260200182815260200192505050602060405180830381600087803b15801561071757600080fd5b505af115801561072b573d6000803e3d6000fd5b505050506040513d602081101561074157600080fd5b50506001600055505050565b600c546001600160a01b0316331461079a576040805162461bcd60e51b81526020600482015260136024820152600080516020611c90833981519152604482015290519081900360640190fd5b600260005414156107e0576040805162461bcd60e51b815260206004820152601f6024820152600080516020611cb0833981519152604482015290519081900360640190fd5b600480546001600160a01b0319166001600160a01b03929092169190911790556001600055565b600c546001600160a01b031681565b60015462010000900460ff1681565b600c546001600160a01b03163314610872576040805162461bcd60e51b81526020600482015260136024820152600080516020611c90833981519152604482015290519081900360640190fd5b600260005414156108b8576040805162461bcd60e51b815260206004820152601f6024820152600080516020611cb0833981519152604482015290519081900360640190fd5b600260005560095481116108fd5760405162461bcd60e51b8152600401808060200182810382526022815260200180611cd06022913960400191505060405180910390fd5b6009556001600055565b600a5481565b600c546001600160a01b0316331461095a576040805162461bcd60e51b81526020600482015260136024820152600080516020611c90833981519152604482015290519081900360640190fd5b600260005414156109a0576040805162461bcd60e51b815260206004820152601f6024820152600080516020611cb0833981519152604482015290519081900360640190fd5b600260009081555b81518110156109f35760008282815181106109bf57fe5b6020908102919091018101516001600160a01b03166000908152600e90915260409020805460ff19169055506001016109a8565b50506001600055565b60015460ff1681565b6002546001600160a01b031681565b600d6020526000908152604090205481565b60085481565b60055481565b60095481565b600c546001600160a01b03163314610a85576040805162461bcd60e51b81526020600482015260136024820152600080516020611c90833981519152604482015290519081900360640190fd5b60015460ff1615610add576040805162461bcd60e51b815260206004820152601d60248201527f54726561737572793a20616c726561647920696e697469616c697a6564000000604482015290519081900360640190fd5b6001805460ff19168117905581518290600090610af657fe5b6020026020010151600160036101000a8154816001600160a01b0302191690836001600160a01b0316021790555081600181518110610b3157fe5b6020026020010151600260006101000a8154816001600160a01b0302191690836001600160a01b0316021790555081600281518110610b6c57fe5b6020026020010151600360006101000a8154816001600160a01b0302191690836001600160a01b0316021790555081600381518110610ba757fe5b6020026020010151600460006101000a8154816001600160a01b0302191690836001600160a01b0316021790555080600081518110610be257fe5b602002602001015160058190555080600181518110610bfd57fe5b602002602001015160068190555080600281518110610c1857fe5b602002602001015160078190555080600381518110610c3357fe5b602002602001015160088190555080600481518110610c4e57fe5b602002602001015160098190555080600581518110610c6957fe5b6020026020010151600a819055505050565b60026000541415610cc1576040805162461bcd60e51b815260206004820152601f6024820152600080516020611cb0833981519152604482015290519081900360640190fd5b6002600090815533808252600e60205260409091205460ff16610d19576040805162461bcd60e51b81526020600482015260136024820152600080516020611c90833981519152604482015290519081900360640190fd5b600154610100900460ff16610d5f5760405162461bcd60e51b8152600401808060200182810382526022815260200180611cf26022913960400191505060405180910390fd5b60008211610db4576040805162461bcd60e51b815260206004820152601d60248201527f54726561737572793a20696e76616c6964205f62757364416d6f756e74000000604482015290519081900360640190fd5b600b54610dc19083611a58565b600b8190556008541015610e1c576040805162461bcd60e51b815260206004820152601e60248201527f54726561737572793a2062757364486172644361702065786365656465640000604482015290519081900360640190fd5b6001600160a01b0381166000908152600d6020526040902054610e3f9083611a58565b6001600160a01b0382166000908152600d602052604090208190556007541015610eb0576040805162461bcd60e51b815260206004820152601e60248201527f54726561737572793a2062757364536c6f744361702065786365656465640000604482015290519081900360640190fd5b600254604080516370a0823160e01b815230600482015290516000926001600160a01b0316916370a08231916024808301926020929190829003018186803b158015610efb57600080fd5b505afa158015610f0f573d6000803e3d6000fd5b505050506040513d6020811015610f2557600080fd5b5051600254604080516323b872dd60e01b81526001600160a01b0386811660048301523060248301526044820188905291519394509116916323b872dd916064808201926020929091908290030181600087803b158015610f8557600080fd5b505af1158015610f99573d6000803e3d6000fd5b505050506040513d6020811015610faf57600080fd5b5050600254604080516370a0823160e01b815230600482015290516000926001600160a01b0316916370a08231916024808301926020929190829003018186803b158015610ffc57600080fd5b505afa158015611010573d6000803e3d6000fd5b505050506040513d602081101561102657600080fd5b50519050836110358284611ab9565b14611084576040805162461bcd60e51b815260206004820152601a6024820152792a3932b0b9bab93c9d1034b73b30b634b2103a3930b739b332b960311b604482015290519081900360640190fd5b6005546000906110a19061109b87620f4240611afb565b90611b54565b6001546040805163a9059cbb60e01b81526001600160a01b0388811660048301526024820185905291519394506301000000909204169163a9059cbb916044808201926020929091908290030181600087803b15801561110057600080fd5b505af1158015611114573d6000803e3d6000fd5b505050506040513d602081101561112a57600080fd5b505060016000555050505050565b600154630100000090046001600160a01b031681565b600c546001600160a01b0316331461119b576040805162461bcd60e51b81526020600482015260136024820152600080516020611c90833981519152604482015290519081900360640190fd5b600260005414156111e1576040805162461bcd60e51b815260206004820152601f6024820152600080516020611cb0833981519152604482015290519081900360640190fd5b600260009081556001600160a01b0383168152600e602052604090205460ff16611252576040805162461bcd60e51b815260206004820152601d60248201527f54726561737572793a20696e76616c696420707265764163636f756e74000000604482015290519081900360640190fd5b6001600160a01b039182166000908152600e6020526040808220805460ff19908116909155929093168152918220805490911660019081179091559055565b6004546001600160a01b031681565b60065481565b600c546001600160a01b031633146112f3576040805162461bcd60e51b81526020600482015260136024820152600080516020611c90833981519152604482015290519081900360640190fd5b60026000541415611339576040805162461bcd60e51b815260206004820152601f6024820152600080516020611cb0833981519152604482015290519081900360640190fd5b6002600055600a548111611394576040805162461bcd60e51b815260206004820152601d60248201527f54726561737572793a20696e76616c6964205f756e6c6f636b54696d65000000604482015290519081900360640190fd5b600a556001600055565b600c546001600160a01b031633146113eb576040805162461bcd60e51b81526020600482015260136024820152600080516020611c90833981519152604482015290519081900360640190fd5b60026000541415611431576040805162461bcd60e51b815260206004820152601f6024820152600080516020611cb0833981519152604482015290519081900360640190fd5b600260009081555b81518110156109f357600082828151811061145057fe5b6020908102919091018101516001600160a01b03166000908152600e90915260409020805460ff19166001908117909155919091019050611439565b600c546001600160a01b031633146114d9576040805162461bcd60e51b81526020600482015260136024820152600080516020611c90833981519152604482015290519081900360640190fd5b6002600054141561151f576040805162461bcd60e51b815260206004820152601f6024820152600080516020611cb0833981519152604482015290519081900360640190fd5b600c80546001600160a01b0319166001600160a01b03929092169190911790556001600055565b600e6020526000908152604090205460ff1681565b60075481565b600154610100900460ff1681565b600c546001600160a01b031633146115bc576040805162461bcd60e51b81526020600482015260136024820152600080516020611c90833981519152604482015290519081900360640190fd5b60026000541415611602576040805162461bcd60e51b815260206004820152601f6024820152600080516020611cb0833981519152604482015290519081900360640190fd5b6001805461ff0019168155600055565b600c546001600160a01b0316331461165f576040805162461bcd60e51b81526020600482015260136024820152600080516020611c90833981519152604482015290519081900360640190fd5b600260005414156116a5576040805162461bcd60e51b815260206004820152601f6024820152600080516020611cb0833981519152604482015290519081900360640190fd5b600260005560015462010000900460ff16156116f25760405162461bcd60e51b8152600401808060200182810382526021815260200180611d586021913960400191505060405180910390fd5b6001805462ff0000191662010000179055600954600b5460009161171e916127109161109b9190611afb565b9050600061173e60065461109b620f424085611afb90919063ffffffff16565b6002546003546040805163095ea7b360e01b81526001600160a01b03928316600482015260248101879052905193945091169163095ea7b3916044808201926020929091908290030181600087803b15801561179957600080fd5b505af11580156117ad573d6000803e3d6000fd5b505050506040513d60208110156117c357600080fd5b50506001546003546040805163095ea7b360e01b81526001600160a01b03928316600482015260248101859052905163010000009093049091169163095ea7b3916044808201926020929091908290030181600087803b15801561182657600080fd5b505af115801561183a573d6000803e3d6000fd5b505050506040513d602081101561185057600080fd5b505060015460408051631b14974160e21b8152905163010000009092046001600160a01b031691636c525d049160048082019260009290919082900301818387803b15801561189e57600080fd5b505af11580156118b2573d6000803e3d6000fd5b50506003546002546001546040805162e8e33760e81b81526001600160a01b039384166004820152630100000090920483166024830152604482018890526064820187905260006084830181905260a483018190523060c48401524260e4840152905192909316945063e8e337009350610104808201936060939283900390910190829087803b15801561194557600080fd5b505af1158015611959573d6000803e3d6000fd5b505050506040513d606081101561196f57600080fd5b505060015460408051637f00ca7960e11b8152905163010000009092046001600160a01b03169163fe0194f29160048082019260009290919082900301818387803b1580156119bd57600080fd5b505af11580156119d1573d6000803e3d6000fd5b5050600b54600092506119e5915084611ab9565b600254600480546040805163a9059cbb60e01b81526001600160a01b039283169381019390935260248301859052519394509091169163a9059cbb916044808201926020929091908290030181600087803b15801561071757600080fd5b600b5481565b6003546001600160a01b031681565b600082820183811015611ab0576040805162461bcd60e51b815260206004820152601b60248201527a536166654d6174683a206164646974696f6e206f766572666c6f7760281b604482015290519081900360640190fd5b90505b92915050565b6000611ab083836040518060400160405280601e81526020017f536166654d6174683a207375627472616374696f6e206f766572666c6f770000815250611b93565b600082611b0a57506000611ab3565b82820282848281611b1757fe5b0414611ab05760405162461bcd60e51b8152600401808060200182810382526021815260200180611d146021913960400191505060405180910390fd5b6000611ab083836040518060400160405280601a815260200179536166654d6174683a206469766973696f6e206279207a65726f60301b815250611c2a565b60008184841115611c225760405162461bcd60e51b81526004018080602001828103825283818151815260200191508051906020019080838360005b83811015611be7578181015183820152602001611bcf565b50505050905090810190601f168015611c145780820380516001836020036101000a031916815260200191505b509250505060405180910390fd5b505050900390565b60008183611c795760405162461bcd60e51b8152602060048201818152835160248401528351909283926044909101919085019080838360008315611be7578181015183820152602001611bcf565b506000838581611c8557fe5b049594505050505056fe54726561737572793a20666f7262696464656e000000000000000000000000005265656e7472616e637947756172643a207265656e7472616e742063616c6c0054726561737572793a20696e76616c6964205f627573644261736973506f696e747354726561737572793a2073776170206973206e6f206c6f6e67657220616374697665536166654d6174683a206d756c7469706c69636174696f6e206f766572666c6f7754726561737572793a20756e6c6f636b54696d65206e6f74207965742070617373656454726561737572793a206c697175696469747920616c7265616479206164646564a2646970667358221220ed2d1061089254337a2bf22e64512a2b20b5a50d8e523779099d1e800055ffdb64736f6c634300060c0033",
  "linkReferences": {},
  "deployedLinkReferences": {}
}